S02100004175746F6D61746564546170656472697665436F6E74726F6C2E73726563DA
S1130000A8FEFF1F110400004D0400004D04000071
S113001000000000000000000000000000000000DC
S11300200000000000000000000000004D0400007B
S113003000000000000000004D0400004D0400001A
S11300404D0400004D0400004D0400004D04000068
S11300504D0400004D0400004D0400004D04000058
S11300604D0400004D0400004D0400004D04000048
S11300704D0400004D040000AD6D00004D0400006F
S11300804D040000BD6D0000CD6D0000DD6D00006D
S11300904D0400004D0400004D0400004D04000018
S11300A04D0400004D0400004D0400004D04000008
S11300B04D0400004D0400004D0400004D040000F8
S1130400FFFFFFFFFFFFFFFFFFFFFFFFFFFFFEFFF9
S113041072B60848084901600848804762B608492E
S1130420084A094B9B1A03DD043BC858D050FBDC37
S113043002F028FE08ED00E000000000C1300000DA
S113044020CD000000F0FF1F90F1FF1F004800477F
S11304504D04000002B47146490849000956490098
S11304608E4402BC7047C04602B471464908490034
S1130470095C49008E4402BC7047C04603B471460F
S1130480490840004900095E49008E4403BC704796
S1130490002243088B4274D303098B425FD3030ABF
S11304A08B4244D3030B8B4228D3030C8B420DD3D2
S11304B0FF22090212BA030C8B4202D31212090260
S11304C065D0030B8B4219D300E0090AC30B8B429E
S11304D001D3CB03C01A5241830B8B4201D38B034C
S11304E0C01A5241430B8B4201D34B03C01A5241F1
S11304F0030B8B4201D30B03C01A5241C30A8B4234
S113050001D3CB02C01A5241830A8B4201D38B021E
S1130510C01A5241430A8B4201D34B02C01A5241C2
S1130520030A8B4201D30B02C01A5241CDD2C30934
S11305308B4201D3CB01C01A524183098B4201D3B0
S11305408B01C01A524143098B4201D34B01C01A9B
S1130550524103098B4201D30B01C01A5241C30813
S11305608B4201D3CB00C01A524183088B4201D382
S11305708B00C01A524143088B4201D34B00C01A6E
S11305805241411A00D20146524110467047FFE7DA
S113059001B5002000F0FCF802BDC0460029F7D0E8
S11305A003B5FFF775FF0EBC4243891A1847C046CE
S11305B003460B437FD4002243088B4274D30309C0
S11305C08B425FD3030A8B4244D3030B8B4228D361
S11305D0030C8B420DD3FF22090212BA030C8B4287
S11305E002D31212090265D0030B8B4219D300E027
S11305F0090AC30B8B4201D3CB03C01A5241830BAC
S11306008B4201D38B03C01A5241430B8B4201D35B
S11306104B03C01A5241030B8B4201D30B03C01A84
S11306205241C30A8B4201D3CB02C01A5241830AFE
S11306308B4201D38B02C01A5241430A8B4201D32D
S11306404B02C01A5241030A8B4201D30B02C01A57
S11306505241CDD2C3098B4201D3CB01C01A5241BE
S113066083098B4201D38B01C01A524143098B4247
S113067001D34B01C01A524103098B4201D30B0130
S1130680C01A5241C3088B4201D3CB00C01A524155
S113069083088B4201D38B00C01A524143088B421A
S11306A001D34B00C01A5241411A00D201465241B3
S11306B0104670475DE0CA0F00D04942031000D3D2
S11306C04042534000229C4603098B422DD3030A27
S11306D08B4212D3FC22890112BA030A8B420CD337
S11306E0890192118B4208D3890192118B4204D360
S11306F089013AD0921100E08909C3098B4201D3E0
S1130700CB01C01A524183098B4201D38B01C01A19
S1130710524143098B4201D34B01C01A5241030990
S11307208B4201D30B01C01A5241C3088B4201D33F
S1130730CB00C01A524183088B4201D38B00C01AEC
S11307405241D9D243088B4201D34B00C01A5241C3
S1130750411A00D20146634652415B10104601D350
S11307604042002B00D54942704763465B1000D3DA
S1130770404201B5002000F00BF802BD0029F8D07A
S113078003B5FFF715FF0EBC4243891A1847C0464C
S11307907047C0468446101C62468C46191C63464A
S11307A000E0C0461FB501F0CFFA002801D40021B3
S11307B0C8421FBD10B501F013FA4042013010BD0C
S11307C010B501F0C1FA002801DB002010BD0120A2
S11307D010BDC04610B501F0B7FA002801DD0020B5
S11307E010BD012010BDC04610B501F03DFA00282F
S11307F001DC002010BD012010BDC04610B501F081
S113080033FA002801DA002010BD012010BDC046D3
S1130810002B11D1002A0FD1002900D1002802D0C9
S11308200021C943081C07B4024802A140180290E1
S113083003BDC0465DFFFFFF03B4684601B50298DF
S113084000F04CF8019B9E4602B00CBC7047C046B9
S1130850F0B54F46464605042D0C2C1CC0B41704B5
S1130860160C3F0C9946030C7C4375435F4373435A
S11308707D19260CAD199C46AF4203D980235B0237
S11308809846C4444B465143434324042E0C240C41
S11308902D0466442C1959188919201C0CBC904647
S11308A09946F0BDF0B583B0161C1F1C0090019151
S11308B002F038FA041C0D1C221C2B1C301C391CA1
S11308C0FFF7C6FF009A019B121A8B410899201C5E
S11308D00A604B60291C03B0F0BDC046F0B5141C7F
S11308E083B01D1C0090019102F014FB221C2B1CF0
S11308F0061C0F1CFFF7ACFF009A019B121A8B41D8
S11309000899301C0A604B60391C03B0F0BDC04626
S1130910F8B54A00430244004E02C50F240E281CB9
S11309209B09120EC90FB7098D4240D0A01A0028A6
S113093000DC84E0002A1CD1002F5CD15A0704D0CB
S11309400F221A40042A00D004338022D2041A4011
S1130950281C002A24D00134FF2C00D17BE09B0109
S11309605B0AE4B25B02E4055B0A2343C007184355
S1130970F8BDFF2CE2D08022D204174301261B28A5
S113098008DC391C20223E1CC140101A8640771E08
S1130990BE410E439B1B5A0133D4281C5A07CFD1A6
S11309A0DB08FF2C1ED05B025B0AE4B2DAE7A11A73
S11309B0002957DD002A3AD0FF2CBFD08022D20470
S11309C0174301261B2972DD9B195A01E5D5013411
S11309D0FF2C00D187E001218A4A194013405B08AB
S11309E00B43ABE7002B36D08022D20313435B02C8
S11309F05B0AFF24B6E7013800283FD1DB1B5A010C
S1130A00CBD59B019E09301C02F06EF90538864057
S1130A10844223DC001B1F24321C431C201ADA40AE
S1130A208640131C741EA6410024334386E7002F1E
S1130A3000D183E70139002950D1DB19C5E700282B
S1130A4020D1621CD2B2012A5EDDDE1B720128D5E0
S1130A50FE1A0D1CD7E7FF24002383E7694B241AF1
S1130A6033406BE7002958D1621CD1B201293CDD27
S1130A70FF2A37D0FB185B08141C5FE7FF2C00D05B
S1130A807CE75BE7002C1ED0FF2A23D08024E404FB
S1130A90404223431B285BDD0123FB1A141C0D1C5D
S1130AA0ADE7002EAFD100230020002478E73A1CE4
S1130AB0CA40944620223E1C511A8E406246771E3C
S1130AC0BE41164380E7002B3ED0C0430028E4D04B
S1130AD0FF2ADFD13B1CFF240D1C2FE7FF2C00D085
S1130AE06FE72BE7FF2400235AE7002C5AD1002B91
S1130AF07FD0002F00D121E7DB195A0100D44CE745
S1130B00404A0134134019E7002C15D1002B2FD192
S1130B10002F5DD03B1C0D1C10E7002C21D1002BB5
S1130B2053D0C943002904D0FF2A4BD01B2957DDD9
S1130B300123DB19141C48E7002B22D1002F4AD0D3
S1130B403B1C0D1CFF24F9E63B1C141C0D1CF5E694
S1130B501D1C2024C540201A8340581E83412B436A
S1130B609BE7FF2A2ED08024E40449422343DDE797
S1130B70002F00D1E2E6DA1B50013CD5FB1A0D1C14
S1130B80DCE6FF24002F00D1D8E68022DB08D20364
S1130B90134204D0FE08164201D1331C0D1CDB00A5
S1130BA0FF24CBE6002B0DD0FF24002F00D1C5E697
S1130BB08022DB08D2031342F1D0FE081642EED1A4
S1130BC0331CECE73B1CFF24B8E63B1C141CB5E6C5
S1130BD0231C0020E4E6802300209B04FF24DFE69E
S1130BE01E1C2024CE40611A8B40591E8B41334376
S1130BF09FE73B1CA2E6131E00D0CEE60023002094
S1130C00CEE6C046FFFFFFFBF0B556464D465F46B5
S1130C104446F0B443024500C70F83B08A465C0AD9
S1130C202E0EB94641D0FF2E26D080231B04234329
S1130C30DC00002398469B467F3E53465B025D0AD8
S1130C4053465A00DB0F120E9A4639D0FF2A33D08E
S1130C5080231B042B43DD0000237F3A5146B21A44
S1130C6046467940081C01921E430F2E00D976E0B7
S1130C707E4AB6009659B746002C30D108239846D0
S1130C80063B9B46D9E780230021DB03FF245B025C
S1130C90E4055B0AC90723430B43181C03B03CBC9F
S1130CA090469946A246AB46F0BD002C28D10423B9
S1130CB09846033B9B46C0E7002D1FD1022302E068
S1130CC0002D11D10123B21A5046464678400192B4
S1130CD01E430F2E27D86649B60089598F460C2328
S1130CE09846093B9B46A8E7281C01F0FDFF7622A5
S1130CF0431F52429D40121A0023AFE70323ADE77E
S1130D00201C01F0F1FF431F9C4076235B421E1A16
S1130D10002398469B4690E70025D1469B465B46B8
S1130D204846022B6FD10121FF2401400023AEE786
S1130D307E23019A5B429B1A1B2B6DDD01214B46DE
S1130D40194000240023A2E78023DB031C4249D17D
S1130D508023DB0323435B025B0A391C96E76301B0
S1130D606D01AB4237D389461A2001215B1B012454
S1130D701E1C49005B00002E01DBAB4201D35B1B50
S1130D80214301380028F3D1581E83410B431D1C15
S1130D90019C7F34002CCBDD6B0704D00F232B4048
S1130DA0042B00D004352B0104D5019A314B803239
S1130DB0141C1D40FE2C07DD4B460121FF24194065
S1130DC0002364E7251CAAE701214A46AB015B0A1C
S1130DD0E4B211405BE7019A8946013A01921B2073
S1130DE00021C4E71D4207D023435B025B0A391C80
S1130DF04CE700256302ABD58023DB032B435B0266
S1130E005B0A514642E7032B25D0012BC0D10121B7
S1130E100024014000233AE7291CD9402B1C019AE5
S1130E209E3293405D1EAB410B435A0704D00F2200
S1130E301A40042A00D004335A0105D54B46012137
S1130E4001241940002322E701214A469B015B0A41
S1130E50114000241BE7802301214A46DB032B4376
S1130E605B020A405B0A111C10E7C04638CA000046
S1130E7078CA0000FFFFFFF74202510A4200C30F85
S1130E80120E00207E2A0DDD9D2A0CDC8020000439
S1130E900143952A0ADC9620821AD1400A1C584242
S1130EA04240D0187047034A9818FBE7963A91409D
S1130EB00A1CF4E7FFFFFF7F70B5041E39D0C50F8D
S1130EC000D04442201C01F00FFF9E23261C1B1A55
S1130ED0962B07DC082801DD083884406402640A84
S1130EE0D8B21EE0992B0ADD0522211C121AD1402A
S1130EF00A1C011C1B318E40711E8E4116430528AD
S1130F0001DD421F96400F4C3440720704D00F227B
S1130F101640042E00D0043462010ED4A401640AE5
S1130F20D8B26402C005640AED0704432C43201CB4
S1130F3070BD002500200024F3E7024B1C409F23D2
S1130F401B1AEBE7FFFFFFFBF0B5454657464E463D
S1130F5094464C000A03C90FE0B488460E1C1903DA
S1130F60470FC500480A6146490F01436046520ACB
S1130F701743C0005A00640D520DDB0F8446984598
S1130F8000D1A7E0A01A002800DC01E1002A3DD12D
S1130F9063460B4300D0D4E06B0700D188E00F23F5
S1130FA02B40042B00D183E02A1DAA42AD418023AB
S1130FB06D427F191B043B404646151C002B00D193
S1130FC07CE0CC4B01349C4200D1FDE03A1CCA4B7E
S1130FD0ED081A405007640552020543120B640DD4
S1130FE0002112030B0D1B056405120B1A43630841
S1130FF0C24CF60714401C43640064083443281CA4
S1131000211C1CBC90469946A246F0BDB94B9C429B
S1131010C2D080231B041943382800DDECE01F28CC
S113102000DD21E120220E1C6346121A9640C340C3
S1131030334366469640321C561EB24113430A1C83
S1131040C240EB1A9D42B6411D1CBA1A7642971B48
S11310503B0200D497E07A02560A002E00D1B6E093
S1131060301C01F041FE031C083B1F2B00DDB7E0E0
S11310709E40371C28262A1C361AF240161C9D4016
S11310803E439C4200DDB2E01C1B621C1F2A00DDB3
S1131090D8E01F23291C1C1B331CA540A340D140AE
S11310A06C1EA541D64019430D43371C002473E739
S11310B080231B043B40464600D082E78D4BED085D
S11310C078070543FA089C4232D012036405120BD8
S11310D0640D85E7A31A002B00DC94E0002A3CD0C1
S11310E0844A944200D157E7802212041143382BDA
S11310F000DC05E163461943481E81410022C8B261
S11311004019A8429B41051CD2195B42D7183B02E7
S113111039D5784B01349C4200D14CE10120764A08
S11311206B083A4028401843D5070543570833E76E
S11311302B1C134348D080231B031A431203120BA6
S11311404EE70138002878D16346EE1AB5429B4138
S11311507A1A5B42D71A351C7AE7021C0A4300D17B
S11311601AE7013B002B00D0F2E04019A8429B4152
S1131170CA195B42D718051CC9E7131C334300D1B5
S113118018E1171C351C46466B0700D007E795E7A6
S113119000287AD1621C5205520D012A00DCFBE0C2
S11311A06246AA1A9542B6419146781A7242861A44
S11311B0320200D493E06246551BAC458041CF1BFC
S11311C040423E1A984648E70022002508E7281CBA
S11311D001F08AFD2030031C083B1F2B00DC47E78D
S11311E0283885402E1C00259C4200DC4CE7424AEE
S11311F0E41A1640371CCFE6634619434B1E994147
S11312000022CBB21DE7002B00D0F2E0601C4305A6
S11312105B0D012B00DCA4E0364B984200D121E1A8
S113122063465C19AC429B41CF195B42FA186408CF
S1131230D50725435708041CAEE62E4B9C4200D02C
S1131240EAE6A9E6211C331C1F39CB40191C202ACD
S113125000D182E03F231C1BA64035436E1EB541DE
S113126000270D4300248EE7031C0E1C203BDE40A8
S1131270202874D040231B1A99400B1C6246134348
S1131280591E8B4100223343DBE6002C50D0194C0D
S1131290A24200D1A8E080242404404227433828F5
S11312A000DDD9E01F2800DD39E120243E1C241A8A
S11312B0A640B0462E1CA146C640444626434C4692
S11312C0A5406C1EA541C74035436046451BCF1B56
S11312D0AC45894149427F1A141C9846B8E64B46EE
S11312E04D46334300D0B8E60026002700240025ED
S11312F0E4E6C046FF070000FFFF7FFFFFFF0F800B
S11313001F2B5BDC2022081CD21A904081466046C9
S11313109246D8404A461043814652466046904021
S1131320021C501E8241484610430A1CDA40E7E67C
S11313303C1C2C4358D0C043002851D16046451B67
S1131340AC458041CF1B40423F1A141C98467FE6AF
S11313508F4A944200D0CAE61EE600267DE70023A9
S11313608CE73B1C2B43002C00D0BDE0002B00D1AC
S1131370F5E063460B4300D10EE663465B19AB42CE
S11313808041CA19404217183A0200D4FCE0814A4D
S11313901D1C17400134FFE53A1C2A43002C51D18F
S11313A0002A00D085E062460A4303D00F1C65463C
S11313B09846F1E50026002700257FE6181C0A1C44
S11313C02038C240202B00D1A7E04020C01A814021
S11313D0081C63461843411E8841104300228FE6CF
S11313E06B4CA24200D05AE70F1C6546141C984669
S11313F0D2E5002C3AD1381C284371D0DB43002BB2
S113140018D0634882426BD0382B00DD9DE01F2B3F
S113141000DDA7E020203C1CC01A8440A1462C1CFF
S11314208246DC404846044350468540681E854158
S1131430DF402543654465459B417F185B42FF18A7
S1131440141C64E6002A19D162460A4377D00F1CA3
S1131450654698464E4C9FE53D436F1EBD410027AF
S1131460EDB232E7041C0027002527E648488242F3
S113147036D0802000045B420743C5E762460A4336
S113148049D08024ED087807FA082403284322422F
S113149009D0CE08264206D162464F07381CD2082E
S11314A010439846321CD200470F1743C500384CEE
S11314B072E562460A4300D16EE56246AE1AB54251
S11314C09241781A5242821A100200D455E66246BA
S11314D0551BAC458041CA1B4042171A98465BE530
S11314E00F1C6546141C57E5002B34D063460B4390
S11314F011D08024ED087807FA08240328432242F7
S1131500D1D0CB082342CED162464F07381CD20833
S113151010431A1CC7E71E4C3EE5002059E7041C83
S11315203E1C203CE640341C20282BD04026301A98
S113153087403D436F1EBD4100272543C5E68027F4
S11315400026FF03124C0025B8E53D436F1EBD4144
S11315500027EDB26EE70F1C65460D4C1CE50F1C11
S1131560654619E51C1C381C203CE040041C202B5B
S11315700CD04020C31A9F403D436F1EBD4100273D
S1131580254357E70027D4E71D1CFCE50027F3E7B4
S1131590FF070000FFFF7FFFF0B55F4656464D464C
S11315A04446F0B40F0387B098464D003B0BCC0F74
S11315B0061C924681469B466D0D01946BD0664B8A
S11315C09D4235D080275B467F031F43F300994635
S11315D0624BFF00400F9C4607430023BB46002696
S11315E065440093424617035000D20F53463F0B05
S11315F0400D904600D172E0574A904267D0802354
S11316005B031F435346554A5B0FFF001F43944639
S113161053460021DB0060444246624092462D1A44
S11316200E430F2E00D9A1E04D48B60080598746DD
S11316305B461E4300D076E000239B469946023366
S113164008260093CEE799464346BB460193009192
S1131650009B022B6BD1019B9A4600215346012229
S1131660002789461A403C4B00213F030C0D2405FA
S11316703F0B27433B4C1B0527401F437F00D207EA
S11316807F0817434846391C07B03CBC904699462E
S1131690A246AB46F0BD03433ED05B46002B00D1CF
S11316A09CE1584601F020FB2823311C1B1A021C24
S11316B05F46D940083A97400B1C96403B439B46F3
S11316C0B1460023284D00262D1A00938AE752467E
S11316D003213A43A0D10027002302219CE752466C
S11316E03A4315D0002F00D185E1381C01F0FCFAF3
S11316F0021C28215046891A131CC8405146083B35
S113170099409F400B1C074317480021801A83E728
S11317100027002301217FE700239B4699460133DC
S1131720042600935EE703230C2600935AE7032B59
S113173000D13CE2012B00D0BFE11A1C019B1A40EE
S113174000210023002789468EE70023802799463D
S113175000223F03004B87E7FF07000001FCFFFF67
S1131760B8CA0000FFFF0F800DFCFFFFBB4500D986
S113177051E100D14CE14A46039200225C46904676
S1131780013D180E3F0238431B020193030C994696
S113179003041B0C4946061C201C1F1C0093FEF767
S11317A077FE021C7A4302904946201C171CFEF760
S11317B0F5FE039B09041B0C19438F420CD9029BB1
S11317C08919013B8E4200D952E18F4200D84FE182
S11317D0029B8919023B0293CC1B201C4946FEF74D
S11317E057FE009F834647434946201CFEF7D6FE1A
S11317F0039A0B041404240C23439F420DD95A4624
S11318009B19013A9E4200D930E19F4200D82DE154
S11318100222524294469B19E344029ADB1B1704AA
S11318205A463A439346019C170C220C101C04920E
S11318305A4611042204120C141C090C7C43059210
S11318404A43414347436118100C09188C4203D999
S113185080204002844667440C0C12040804120CD5
S11318603C198118A34200D2E5E000D1DFE01F1B40
S113187043465C1AA04592415242BF1AB74200D176
S11318800EE1381C4946FEF703FE009B02904343D9
S11318904946381C9846FEF781FE230C0F041F436B
S11318A0B8450CD9029BBF19013BBE4200D9FBE0ED
S11318B0B84500D8F8E0029BBF19023B02934346A7
S11318C0FF1A4946381CFEF7E3FD009B039043438F
S11318D04946381C9846FEF761FE24040904240C8A
S11318E0214388450CD9039B8919013B8E4200D9B9
S11318F0DCE0884500D8D9E0039B8919023B0393B7
S11319004346C91A029B039A1B04059C1A43100CF4
S113191013049146221C049F1B0C5A4344437B43EB
S11319207843E318170CDB199C4203D98024640222
S1131930A44660441C0C12041B04120C00199B18CE
S1131940814200D296E000D1FCE04A4601231A43CA
S113195091469B4BEB18002B00DC99E04A4652075A
S11319600AD00F2249460A40042A05D004314945C9
S113197092418946524293445A46D20106D55A4668
S1131980904B1A4080239346DB00EB188E4A934217
S113199000DD62E64A465946D208490711435A46D1
S11319A089465702514601225B053F0B5B0D0A40F5
S11319B05AE680205A460003024208D0074206D164
S11319C007433F0399463F0B4246804B4CE65F4634
S11319D007433F033F0B221C7C4B45E601F084F98F
S11319E0031C2030272800DC5EE6083B9E400023D1
S11319F0B346994665E6504601F076F9021C20325A
S1131A00272A00DC75E657460838874000237BE622
S1131A10994500D2AFE65A46594654084A46C80783
S1131A205208024303924A46D2079046A9E6002789
S1131A30884500D31CE7019F5A46BC46E044B8459C
S1131A40BF417F42BF19FF18013ABE4206D2BC42D1
S1131A505FD800D19FE03F1B934609E7B742FAD114
S1131A60019B4345F3D9371B934601E79346D4E6DC
S1131A700293B1E64A468919013A8E4218D9914631
S1131A80814200D061E7019A9A4200D05DE760E7A5
S1131A904F4F7F1B382F13DD012253461A404FE668
S1131AA001235B42994654E7029308E7039327E72F
S1131AB088423CD874D0914647E7019B9A4648E750
S1131AC01F2F44DC434B4A469C465B466544FA4020
S1131AD0AB4013434A46AA40151C6A1E95415A4618
S1131AE0FA402B43171C5A0709D00F221A40042A24
S1131AF005D01A1D9A429B415B42FF18131C3A02FF
S1131B003ED55346012200211A400027012389466D
S1131B10AAE502235B429C46019AE3449446E044CE
S1131B2090459B415B429B19DF193F1BA0E6019F37
S1131B304A467C00BC42BF417F42BF19023AC919E0
S1131B4001949CE7002B95D1002201929BE75A4611
S1131B50214B5B1BDA40202F27D0204B9C465B4651
S1131B606544AB4049460B43591E8B41134307223E
S1131B7000271A4007D00F2200271A40042AB8D1A0
S1131B807A077F023F0BDB08134399460122534631
S1131B901A40002368E54145BBD89346002767E611
S1131BA0019C9C42C3D391466DE70023DAE780276A
S1131BB05B463F031F433F033F0B019A034B53E52F
S1131BC0FF030000FFFFFFFEFE070000FF07000009
S1131BD002FCFFFF1E040000E2FBFFFF3E040000C6
S1131BE0F0B55F464D4644465646F0B41F035C00CC
S1131BF0DB0F99461B4B0E034D00C90F8446360B71
S1131C006D0D8B4690463F0B640D9D420CD0154BD9
S1131C109C4210D00123A54214D0181C3CBC904611
S1131C209946A246AB46F0BD311C01230143F4D1D1
S1131C300C4B9C42EED13A430123002AEDD10123FF
S1131C40A542EAD1BE42E8D1C445E6D1CB4506D08F
S1131C50002DE2D13043031C581E8341DDE70023ED
S1131C60DBE7C046FF070000F0B5574645464E4641
S1131C70E0B40F034E00C90F8A4632491D035C00CD
S1131C8084463F0B760D90462D0B640DDB0F8E4280
S1131C900FD08C4239D0002E10D1384341424141FB
S1131CA08946002C27D12A4325D1002000290ED1B2
S1131CB008E0391C01432ED1B44226D0002C0BD0AD
S1131CC09A450DD05346594201231943081C1CBCA4
S1131CD090469946A246F0BD2A43F3D09A45F1D1E5
S1131CE0A642EFDC1ADA5046414248410123414200
S1131CF01943081CEBE74A46002AE1D058425841F0
S1131D00012241421143081CE1E7291C114302D17D
S1131D10002EC2D0D4E702204042D8E7AF42D1D847
S1131D2009D00020AF42D2D250464142484101235B
S1131D3040421843CBE7C445C4D80020C445F3D37C
S1131D40C5E7C046FF070000F0B55F464D46444670
S1131D5056468046F0B4061C0803000B84462C4803
S1131D604C001F035D00C90F640D8B4691463F0B69
S1131D706D0DDB0F844212D0854225D0002C14D186
S1131D8061460E4370424641002D35D0002E21D0CD
S1131D9058425841012143420B43181C0EE061464E
S1131DA0022031430AD1A5420ED0002D12D13A436C
S1131DB010D15B46594201231943081C3CBC904690
S1131DC09946A246AB46F0BD391C02201143F5D119
S1131DD0002CD5D09B45ECD1AC42EADC05DBBC45FC
S1131DE0E7D80FD00020BC45E8D2584641424841CC
S1131DF0414201200843E1E73A43C7D10020002EC5
S1131E00DCD1D6E7C845D4D80020C845EDD3D5E702
S1131E10FF070000F0B55F4656464D464446F0B411
S1131E20051C061C080387B099464F00030BCC0F12
S1131E3092469B467F0D019467D06C4B9F4236D0EF
S1131E4080205B4640031843C0006B0F1843684B67
S1131E5083469C4600239846EE00674400934B4615
S1131E6049461D03C90F5B0052462D0B5B0D894685
S1131E7000D16EE05D498B4264D080205C49400310
S1131E808C4600210543ED00500F0543D200634406
S1131E904846FF187B1C9A46009B604002900B4307
S1131EA00F2B00D9ACE053489B00C3589F465B46B8
S1131EB01D4300D082E00823009300239B46023395
S1131EC000269846CBE7029B01934346022B59D147
S1131ED0012400250026019B1C40444B00212D03B6
S1131EE00A0D12052D0B1543434A1B0515401D43CE
S1131EF06D00E4076D082543301C291C07B03CBC69
S1131F0090469946A246AB46F0BD2B434ED05B4665
S1131F10002B00D185E1584600F0E6FE021C282380
S1131F20291C9B1A161C5846D940083EB0400B1C6D
S1131F30B54003439B462E1C0023304F0093BF1A29
S1131F4098468CE7514629432ED1002500220221D0
S1131F509EE75146294323D0002D00D154E1281C8B
S1131F6000F0C2FE031C28215046C91A1A1CC8409E
S1131F705146083A914095400A1C05431F480021E8
S1131F80C31A85E7032B00D1C2E1012B00D06DE118
S1131F904446019B00251C40E4B2002300269DE733
S1131FA000250022012173E7032171E70423009334
S1131FB000239B4601330026984650E70C230093E8
S1131FC0093B98464BE7802500242D030026074B48
S1131FD084E74B46AB46161C0193884675E7029B83
S1131FE0AB46161C019388466FE7C046FF07000006
S1131FF001FCFFFFF8CA0000FFFF0F800DFCFFFF8C
S1132000330C3604360C9C46331C140C1204120C8C
S11320105343984663465343994663466343019347
S1132020331C41466343090C4B445B18994505D95D
S1132030802040028146019949440191190C039181
S113204041460904090C1B045B1804932B0C9846A5
S1132050331C2D04290C4B436046009343466546CC
S113206058435E43009B4D431B0C9946AE194E44A6
S11320708446B54203D980235B029946CC44350C8F
S11320802B1C0398634484460593009B36041B046D
S11320901B0CF3189C446046039058460504060C38
S11320A0280C84465043351C8146604665434443AE
S11320B04846000C8346724314195C44A24203D977
S11320C08022520293465D44220CAD184A46120403
S11320D0120C24044046A41862464A437143464302
S11320E060460096464670438046100C84468844F9
S11320F0E044414505D9802149028C460099614458
S11321000091019803998446614499429B415B4242
S113211099460598434684461204120C1B049B18E6
S113212063449C46AB4683429B4140460A19CC44D7
S1132130A2428941E344CC45B6415C46000C80464A
S1132140494276425B426418334398448C42894145
S1132150AB459B4149425B4219430D1C009B4544DE
S1132160EE187602E50D2E43B346049B56021E4339
S1132170731E9E415B46D20D324366021643DB0159
S11321800AD50123334076081E435B46DB071E4312
S11321905B465B089B465746634BFB18002B5ADD96
S11321A0720709D00F223240042A05D0321DB242F0
S11321B0B6417642B344161C5A46D20106D55A4655
S11321C05A4B1A4080239346DB00FB18584A93422B
S11321D034DD0124029B00251C400026554B7DE67E
S11321E080205B460003034208D0054206D1054324
S11321F02D032D0B4C46161C4E4B6FE65D460543D6
S11322002D032D0B4B4B69E6504600F06DFD031C6E
S11322102033272B00DCA6E65546083885400022EB
S1132220ACE6281C00F060FD021C2032272A00DCEA
S113223075E6083885400026AB467DE65A46F60822
S1132240520716435A4601245502029A5B052D0B88
S11322505B0D144042E6384DED1B382D0ADD012498
S1132260029B00251C400026002337E6019B5746AD
S1132270029391E71F2D25DC304B321C9C466744AA
S1132280BE405B46BB40371CEA407E1EB741134349
S11322903B431E1C5B46EB401D1C730709D00F23F8
S11322A03340042B05D0331DB342B6417642AD19F9
S11322B01E1C2B0220D50124029B00251C40002655
S11322C001230BE65A461E4BDB1BDA40131C202D60
S11322D01CD01C4A94465A466744BA40171C3E43D5
S11322E0721E96411E4307230025334007D00F2357
S11322F000253340042BD6D16B076D022D0B01242E
S1132300F6081E43029B1C400023E7E50027E6E78E
S113231080255B4601242D031D43019B2D0323408F
S11323201C1C2D0B034BD9E5FF030000FFFFFFFE30
S1132330FE070000FF07000002FCFFFF1E04000070
S1132340E2FBFFFF3E040000F0B54D4644465F4605
S11323505646F0B40E1C111C3203520A470F1743A1
S1132360C5001A035800DB0F9946520A4B0F83B07D
S11323701A43CB000193CF4B7400F60F640DB046A3
S1132380400D984200D1E8E00123494659400B1C16
S11323909E4200D1B1E0261A002E00DC1CE1002888
S11323A042D1131C01990B4300D0E6E06B0700D126
S11323B08EE00F232B40042B00D189E02A1DAA4272
S11323C0AD418023012641466D427F191B043B40E9
S11323D00E40151C002B00D183E0B64B01349C4207
S11323E000D116E13A1CB44BED081A4050076405BD
S11323F052020543120B640D002112030B0D1B0541
S11324006405120B1A436308AC4CF60714401C43D2
S1132410640064083443281C211C03B03CBC90466F
S11324209946A246AB46F0BDA24B9C42BED0802347
S11324301B041A43382E00DD03E11F2E00DD3FE1AB
S11324402020831B9946131C49468B409C46019BC4
S11324506046F34003430198F2408840011C481E43
S113246081410B43EB1A9D4280411D1CBA1A404224
S1132470171A3B0200D4A8E07A02560A002E00D1B3
S1132480CAE0301C00F030FC031C083B1F2B00DDAD
S1132490CBE02822291C121AD1409E400A1C9D40E0
S11324A032439C4200DDC8E01C1B671C1F2F00DD6B
S11324B0EDE01F23291C1C1B131CA540A340F9405D
S11324C06C1EA541FA4019430D43171C00246DE707
S11324D08023012642461B043B401640002B00D0BB
S11324E07BE7744BED0878070543FA089C423BD020
S11324F012036405120B640D7EE7231A9A46002B1F
S113250000DCA5E0002844D06A48844200D14DE7AD
S11325108020000402435346382B00DC1CE1019B5D
S11325201A43511E8A41D1B200224919A94280415D
S11325300D1CD219404217183B0246D55D4B01349D
S11325409C4200D169E101205B4A6B083A40284073
S11325501843D5070543570828E7131C01990B4373
S113256000D111E74B4613E72B1C134351D08023B2
S11325701B031A431203120B3EE7013E002E00D048
S113258080E0691A8D429B41BA1A5B42D71A0D1C2E
S11325906FE7101C019B184300D107E701235B423E
S11325A09C46E2445346002B00D002E1019BD21921
S11325B05919A9429B415B42D7180D1CBCE76346DD
S11325C0034300D128E1071C65466B0700D0F0E601
S11325D0012643461E4084E7002E00D081E0601CA3
S11325E04005400D012800DC07E10199681A844682
S11325F06545B641B81A7642861B300200D4A1E084
S11326008C464D1BAC458941D21B4942561A98460B
S113261034E700220025EFE6281C00F065FB20309B
S1132620031C083B1F2B00DC33E7021C283A9540AF
S11326302A1C00259C4200DC36E71F4FE41A174091
S1132640B4E6019B1A43511E8A41D3B2002209E722
S1132650002B00D001E1601C43055B0D012B00DC65
S1132660B0E0144B984200D11EE1019BD2195919D4
S1132670A9429B415B42D2184908D5070D4357082C
S1132680041C93E60B4B9C4200D0D3E68EE6211C3F
S1132690131C1F39CB40191C202F00D18EE03F237F
S11326A01C1BA24015436A1E954100270D430024BC
S11326B08BE7C046FF070000FFFF7FFFFFFF0F808F
S11326C0331C101C203BD840202E79D040239B1B68
S11326D09A40131C019A1343591E8B410022034351
S11326E0C0E6002C53D0C74CA04200D1B0E08024F7
S11326F071428946240427434946382900DDCDE048
S11327001F2900DD59E120243E1C611A8E408A46AF
S1132710B04649462E1CCE405146B4468D406446D0
S11327204646494626436C1EA541CF403543019990
S1132730D71B8C464D1BAC4592415242BF1A041C18
S1132740984696E663466546334300D096E60026EF
S1132750002700240025C4E61F2B61DC2020C31AB7
S11327609B46131C59468B4051469946019BCB40CE
S11327709C464B46604603439C465B460199994000
S11327806346481E814119435346DA40CDE63C1C5A
S11327902C435DD0F1438946002955D10199D21BC0
S11327A08C464D1BAC4589414942571A041C984636
S11327B05FE69448844200D0ADE6F7E5002271E775
S11327C0002387E73B1C2B43002C00D0DAE0002BCE
S11327D000D113E1131C01990B4300D1E6E549191B
S11327E0A9429B41D2195B42D7183B0200D421E194
S11327F0854B0D1C1F40041CD8E5381C2843002CB5
S113280040D1002800D083E0101C0199084303D074
S1132810171C0D1C9846C9E500260027002560E614
S11328205046131C2038C340181C5346202B00D19B
S1132830C1E0402351465B1A9A40019911434A1E54
S113284091410022014370E66E4CA04200D053E750
S1132850171C019D041C9846A8E5002C28D13C1C9B
S11328602C4300D18AE0DB439A46002B00D082E05F
S1132870019BD2199C4665449D428941494257189F
S1132880041C59E600285BD1101C0199084300D1AF
S1132890A4E0171C0D1C98465A4C87E53D436F1E57
S11328A0BD410027EDB242E7041C0027002518E6CD
S11328B0544CA04262D0534680245B429A4624047E
S11328C027435346382B00DD8EE01F2B00DD9DE0AF
S11328D02024E31A9B463B1C59468B40514699469B
S11328E02B1CCB409C464B46644623439C465B468C
S11328F09D4063466C1EA541CF401D43019BBF18FC
S11329009C4665449D4292415242BF18041C13E602
S1132910101C0199084300D148E5681A8446854291
S11329208041BE1A4042301A060200D447E68C4663
S11329304D1BAC458941D21B4942571A984635E58F
S1132940101C0199084334D080247807ED08FF084F
S113295024032843274208D0D608264205D1C908B3
S113296052070A43101C371C9846FF00420F1743B6
S1132970C500244C1AE5234CA042A2D1171C019D8A
S1132980041C13E5002B35D0131C01990B4310D004
S113299080247807ED08FF08240328432742E4D065
S11329A0D3082342E1D1C90852070A43101C1F1C53
S11329B0DBE7144CFAE400223FE74C463E1C203C83
S11329C0E6404946341C202932D04026761AB740C6
S11329D03D436F1EBD4100272543A8E680270026FE
S11329E0FF03084C00257CE53D436F1EBD410027D5
S11329F0EDB283E7171C019D024CD7E4171C019D1F
S1132A00D4E4C046FF070000FFFF7FFF54463B1C91
S1132A10203CE3401C1C5346202B0DD04023514640
S1132A205B1A9F403D436F1EBD410027254365E768
S1132A300027CDE70D1CC8E50027F3E70B0330B5ED
S1132A40134C1A0B4B00051C5B0DC90F0020A3424D
S1132A5010DD104883420EDC80200F4C40030243FB
S1132A60E41A1F2C0ADD0D48C31ADA40131C48422D
S1132A704340581830BD0A4BC818FBE7281CE040F7
S1132A80084CA44663449A40131C0343EFE7C04632
S1132A90FE0300001D0400003304000013040000C2
S1132AA0FFFFFF7FEDFBFFFF38B5041E16D0C50FF7
S1132AB000D04442201C00F017F9174B1B1A0A28B7
S1132AC021DC021C211C153291400A1C0B21081A1E
S1132AD0C4405B052403240B5B0D03E000250023A5
S1132AE0002400220021101C24030A0D1205240BCB
S1132AF014430A4A1B0514401C436400ED07640890
S1132B002C43211C38BD0B3884405B052403240B63
S1132B105B0D0022E6E7C0461E040000FFFF0F80A5
S1132B204200120E511C38B5C9B243025D0AC40FEB
S1132B30012915DDE02189008C466D071B0B6244D9
S1132B400021281C0D0D2D052B431C4D52052B4037
S1132B50520813435B00E4075B082343191C38BD88
S1132B60002A15D1002D1FD0281C00F0BDF80A281A
S1132B701DDC0B232A1C1B1ADA40131C021C153201
S1132B8095400F4A1B03121A52051B0B520DD7E72F
S1132B90002D06D080221B0B120313436D07094A34
S1132BA0CEE7084A0023CBE700220023C8E7031C32
S1132BB00B3B9D402B1C0025E3E7C046FFFF0F8025
S1132BC089030000FF07000070B50B034D00440F9C
S1132BD06D0D5B0A23436C1C6405C90FC200640DB0
S1132BE0012C2ADD3B4C2C19FE2C1ADC002C35DD83
S1132BF08001451EA841DB000343520F13435A07CB
S1132C0004D00F221A40042A00D004338022D204B4
S1132C101A4027D00134FF2C03D09B015B0AE4B295
S1132C2001E0FF2400235B02E4055B0A23435B000D
S1132C30C9075B080B43181C70BD002D06D1134354
S1132C400ED100245B025B0AE4B2ECE71A43E8D03D
S1132C508020DB0080040343FF24D0E717340CDA20
S1132C6005230024DB08FF2CECD1002B2DD080227F
S1132C70D20313435B025B0AD5E78024164824047D
S1132C802343401B1F280DDC144CA4466544AB4071
S1132C901C1C131CAB405D1EAB41C24023431343B9
S1132CA00024ACE71E1C0E4C641BE640341C202898
S1132CB00DD00C4884466544AB401D1C2A43531E6A
S1132CC09A41131C2343002499E70023ABE7002512
S1132CD0F4E7C04680FCFFFF9E03000082FCFFFF78
S1132CE07E030000A2FCFFFF1C2101231B04984269
S1132CF001D3000C10391B0A984201D3000A083989
S1132D001B09984201D30009043902A2105C40183F
S1132D107047C046040302020101010100000000E3
S1132D2000000000F0B544465F4656464D46F0B4F8
S1132D301C1C85B0002900DAA9E00F1C0021061C28
S1132D408846101C191C002C00DA97E0341C3D1C2A
S1132D5082468946B94273D870D04946504600F03D
S1132D6085F98346391C301C00F080F95B46181A3B
S1132D70031C8346203B9C4600D59CE00023002294
S1132D805146009201936346994001915146814016
S1132D90019B0091BB4200D983E000D17EE0009A00
S1132DA0019B341C3D1CA41A9D416346002B00DA90
S1132DB09AE0002600270296039701369E40039668
S1132DC0012686400296002800D171E00099019AFC
S1132DD0D30799464B464E081E4357080023012249
S1132DE00CE0AF4201D1A6420AD8A41BBD4124196C
S1132DF06D410138A4185D41002806D0AF42F0D9D6
S1132E00013824196D410028F8D12022029E039F25
S1132E105B46524236196F4199185AD4281CC8404F
S1132E202C1C5B46DC40002968DB041C8C40231C02
S1132E3059468840021CB61A9F4103E0B0428CD91F
S1132E400026002741464B1E99410023009101931F
S1132E50009A019B002554429D41331C6340181C79
S1132E603B1C6B40191C009B019CC018614105B0C0
S1132E703CBC90469946A246AB46F0BD4346DB4374
S1132E800C1C9846131C00215842A1415EE7002700
S1132E9046428F4101214942884652E7B14200D857
S1132EA07DE70026002702960397002800D08DE7CF
S1132EB0029E039FC6E720215346091ACB400022F5
S1132EC0191C0023009201934B4683400B4301934A
S1132ED05CE75A4620239B1A2A1C9A40201C131C88
S1132EE05A46D04018439BE720260027331A002671
S1132EF0029603970127DF40039761E75B46202191
S1132F005D46C91A031CAC40CB40191C231C0B435F
S1132F108EE7C046F0B545464E465746E0B4041C1D
S1132F2082B00D1C914698468B4262D85FD04146D0
S1132F30484600F09BF8291C061C201C00F096F85B
S1132F402023311A5B428A46C81865D44B46834015
S1132F501F1C4B468B401E1CAF4258D855D0A41B97
S1132F60BD41002800DA77E000220023009201939B
S1132F7001328240019201238B40009300293CD00E
S1132F80FB079846404672087B0802430126002747
S1132F900CE0AB4201D1A2420AD8A41A9D412419E3
S1132FA06D410139A4197D41002906D0AB42F0D905
S1132FB0013924196D410029F8D120220098019982
S1132FC053465242001969419E183AD42F1CF740C7
S1132FD05346DD40002E29DB3C1CB440231C5446E0
S1132FE0A7403A1C801A99410090019105E0824261
S1132FF09DD900230024009301940098019902B004
S11330001CBC90469946A246F0BDA342A7D9002213
S1133010002300920193B1E720224B46521AD34079
S11330201A1C43468B401F1C174392E75346202427
S11330305646E41A3B1CB540E3401C1C2B1C23439E
S1133040CDE7524620239B1A2A1C9A40271C131CA6
S11330505246D7401F43BBE720230022581A0023BF
S1133060009201930132C240019284E710B5002915
S113307003D1FFF739FE203002E0081CFFF734FECD
S113308010BDC04608F0E4F908F0F0F909480A4A0E
S11330900021121A04F0E7FB08F00CFA08F08AF990
S11330A008F0E6F90549002003F0CAFD04F0B6FB78
S11330B0FEE7C04690F1FF1F90F5FF1F90F1FF1F40
S11330C080B500AF054B064A9A80044B01225A7022
S11330D0024B23221A70BD4680BDC0460020054025
S11330E003E8FFFF80B586B000AF786000237B6102
S11330F000233B6100233B6127E03B699B007A6826
S1133100D3181B68002B07DD3B699B007A68D31832
S11331101B68174A934206DD78690021FDF7F8FB26
S1133120031C7B610EE03B699B007A68D3181B6823
S1133130181CFDF7C1FE031C7869191CFDF7E8FB98
S1133140031C7B613B6901333B613B69312BD4DD5B
S113315078690849FDF758FD031C7B617869FDF720
S11331608BFE031CFB60FB68181CBD4606B080BDCB
S1133170FF0F00000000484280B584B000AF7860C3
S11331800023BB600023FB600023FB6008E0FB68B6
S11331909B007A68D31800221A60FB680133FB6035
S11331A0FB68312BF3DDC046BD4604B080BDC0468C
S11331B090B5C9B000AFF860B9607A603B60002395
S11331C08E225200BA181360FA68D84B101C191CCE
S11331D004F05CFB031E00D0FEE17A68D44B101CA3
S11331E0191C04F053FB031E01D001F03CFABA6829
S11331F0D04B101C191C04F049FB031E4ED13B6834
S1133200012B32D1CC4B1B69012B16D1CB4BCB4AB2
S1133210926801210A439A60C74B5A68C64B1A60E8
S1133220112003F023FD01238E225200BA181360EB
S1133230C34B181C03F028FF17E0BF4B1B69002B7E
S113324013D101238E225200BA181360BA4B1B69A2
S1133250D422B918BB4A081C111C1A1C04F05EFACB
S1133260D423FB18181C03F00FFF3B68002B01D07C
S113327001F0F9F9B14BB14A526801210A435A608D
S1133280112003F009FD01238E225200BA181360A5
S1133290AD4B181C03F0F8FE01F0E5F9BA68AB4B2E
S11332A0101C191C04F0F2FA031E50D13B68012BC8
S11332B033D1A74B1B69012B17D1A64BA54A9268A2
S11332C0802189030A439A60A14B5A68A04B1A6073
S11332D0122003F0CBFC01238E225200BA18136093
S11332E0974B181C03F0D0FE17E0994B1B69002B79
S11332F013D101238E225200BA181360944B1B6918
S1133300D422B9188F4A081C111C1A1C04F006FA9E
S1133310D423FB18181C03F0B7FE3B68002B01D024
S113332001F0A1F98B4B8B4A5268802189030A432F
S11333305A60122003F0B0FC01238E225200BA1806
S11333401360814B181C03F09FFE01F08CF9BA68DE
S1133350814B101C191C04F099FA031E4ED13B68D2
S1133360012B32D17D4B1B69012B16D17C4B7C4A3E
S1133370926810210A439A60784B5A68774B1A6016
S1133380132003F073FC01238E225200BA18136039
S11333906B4B181C03F078FE17E0704B1B69002B75
S11333A013D101238E225200BA1813606B4B1B6990
S11333B0D422B918634A081C111C1A1C04F0AEF973
S11333C0D423FB18181C03F05FFE3B68002B01D0CC
S11333D001F049F9624B624A526810210A435A606B
S11333E0132003F059FC01238E225200BA181360F3
S11333F0554B181C03F048FE01F035F9BA68594BD7
S1133400101C191C04F042FA031E50D13B68012B16
S113341033D1554B1B69012B17D1484B474A92684E
S1133420802109030A439A604F4B5A684E4B1A6035
S1133430132003F01BFC01238E225200BA181360E0
S11334403F4B181C03F020FE17E0474B1B69002B71
S113345013D101238E225200BA181360424B1B6908
S1133460D422B918374A081C111C1A1C04F056F946
S1133470D423FB18181C03F007FE3B68002B01D073
S113348001F0F1F82D4B2D4A5268802109030A43BB
S11334905A60132003F000FC01238E225200BA1854
S11334A01360294B181C03F0EFFD01F0DCF8BA6837
S11334B02E4B101C191C04F0E9F9031E01D001F075
S11334C0D2F83B68012B67D1244B1B69013B5A425C
S11334D05341DAB2244B1B69013B59424B41DBB2E5
S11334E01340DBB2002B43D01D4B1D4A92681021C0
S11334F00A439A60114B114A9268802109030A43D6
S11335009A60194B5A68184B1A60144B5A68134B3B
S11335101A60132003F0AAFB01238E225200BA186A
S11335201360074B181C03F0AFFD35E0E8B400004E
S1133530F0B40000F8B4000078F0FF1F40F00F4032
S1133540FCB4000020B5000050B5000080B50000B8
S1133550A8F0FF1F00F00F4084B50000D8F0FF1F53
S113356080F00F4088B5000008F1FF1F8CB5000003
S113357001238E225200BA181360CE4B1B69D42249
S1133580B918CD4A081C111C1A1C04F0C7F8D4231E
S1133590FB18181C03F078FD3B68002B01D001F0E8
S11335A062F8C64BC54A526810210A435A60C44B9C
S11335B0C34A5268802109030A435A60132003F066
S11335C06BFB01238E225200BA181360BD4B181CEA
S11335D003F05AFD01F047F8FA68BB4B101C191CA4
S11335E004F054F9031E00D044E37A68B74B101C6E
S11335F0191C04F04BF9031E66D13B68002B5FDDF8
S1133600BA68B34B101C191C04F040F9031E0FD107
S1133610B04A3B68101C191C02F094FA01238E2254
S11336205200BA181360AC4B181C03F02DFD4BE08C
S1133630BA68AA4B101C191C04F028F9031E0FD1F8
S1133640A74A3B68101C191C02F07CFA01238E2245
S11336505200BA181360A34B181C03F015FD33E095
S1133660BA68A14B101C191C04F010F9031E0FD1E9
S11336709E4A3B68101C191C02F064FA01238E2236
S11336805200BA1813609A4B181C03F0FDFC1BE09F
S1133690BA68984B101C191C04F0F8F8031E13D1D7
S11336A0844A3B68101C191C02F04CFA01238E2238
S11336B05200BA181360904B181C03F0E5FC03E0A9
S11336C08E4B181C03F0E0FC7A688D4B101C191CFF
S11336D004F0DCF8031E00D06FE03B68002B02D03E
S11336E03B68012B60D1BA68794B101C191C04F09B
S11336F0CDF8031E0FD1774A3B68101C191C02F049
S113370015FA01238E225200BA1813607D4B181C3F
S113371003F0BAFC47E0BA68704B101C191C04F0A3
S1133720B5F8031E0FD16E4A3B68101C191C02F039
S1133730FDF901238E225200BA181360724B181C33
S113374003F0A2FC2FE0BA68674B101C191C04F0AC
S11337509DF8031E0FD1654A3B68101C191C02F02A
S1133760E5F901238E225200BA181360674B181C26
S113377003F08AFC17E0BA685E4B101C191C04F0B5
S113378085F8031E0FD14B4A3B68101C191C02F02C
S1133790CDF901238E225200BA1813605B4B181C1A
S11337A003F072FC09E008E001238E225200BA18EB
S11337B01360574B181C03F067FC7A68554B101CB8
S11337C0191C04F063F8031E00D0B4E03B68002B1E
S11337D004DC3B68504A934200DDA3E0BA683C4BEA
S11337E0101C191C04F052F8031E0FD13B68394A0F
S11337F0101C191C02F0B2F901238E225200BA18CF
S11338001360464B181C03F03FFC51E0BA68334B7D
S1133810101C191C04F03AF8031E0FD13B68304AFF
S1133820101C191C02F09AF901238E225200BA18B6
S113383013603A4B181C03F027FC39E0BA682A4B92
S1133840101C191C04F022F8031E0FD13B68274AF0
S1133850101C191C02F082F901238E225200BA189E
S113386013602E4B181C03F00FFC21E0BA68214BA7
S1133870101C191C04F00AF8031E0FD13B680D4AF2
S1133880101C191C02F06AF901238E225200BA1886
S11338901360224B181C03F0F7FB09E001238E226E
S11338A05200BA1813601E4B181C03F0EDFB42E0E3
S11338B041E0C04608F1FF1F90B5000080F00F40C2
S11338C040F00F4050B50000CCB50000D0B500006A
S11338D0F8B4000078F0FF1FD8B5000080B50000F0
S11338E0A8F0FF1F0CB6000084B50000D8F0FF1F3D
S11338F040B6000088B5000074B60000A8B6000009
S1133900D8B60000DCB6000010B7000044B70000D1
S113391078B70000A4B70000083D0000ACB7000071
S1133920E0B7000001238E225200BA181360B94B8D
S1133930181C03F0A9FB7A68B74B101C191C03F080
S1133940A5FF031E00D0A9E0BA68B44B101C191CD3
S113395003F09CFF031E22D13B68012B02DC3B6871
S1133960072B12DCAE4B3A68DA60AD4BDB68181CEF
S113397003F064FD01238E225200BA181360A94B90
S1133980181C03F081FBC04688E001238E225200FC
S1133990BA181360A44B181C03F076FB7EE0BA68D7
S11339A0A24B101C191C03F071FF031E22D13B68AB
S11339B0012B02DC3B68072B12DC9D4B3A68DA6072
S11339C09B4BDB68181C03F08FFD01238E225200F1
S11339D0BA181360974B181C03F056FBC0465DE001
S11339E001238E225200BA1813608F4B181C03F067
S11339F04BFB53E0BA68904B101C191C03F046FFB4
S1133A00031E22D13B68012B02DC3B68072B12DC2E
S1133A108A4B3A68DA60894BDB68181C03F0BAFDFC
S1133A2001238E225200BA181360854B181C03F030
S1133A302BFBC04632E001238E225200BA181360D9
S1133A40794B181C03F020FB28E0BA687D4B101C4E
S1133A50191C03F01BFF031E20D13B68012B02DC61
S1133A603B68072B11DC784B3A68DA60764BDB68ED
S1133A70181C03F08FFD01238E225200BA18136024
S1133A80724B181C03F000FB08E001238E22520045
S1133A90BA181360644B181C03F0F6FA7A686C4B7E
S1133AA0101C191C03F0F2FE031E01D000F0DBFD14
S1133AB0BA685A4B101C191C03F0E8FE031E23D1EC
S1133AC03B68012B0DD1564B01221A61614B181C26
S1133AD003F0DAFA01238E225200BA18136000F0C0
S1133AE0C2FD3B68002B01D000F0BDFD4C4B002211
S1133AF01A61594B181C03F0C7FA01238E22520095
S1133B00BA18136000F0AFFDBA68484B101C191CBA
S1133B1003F0BCFE031E23D13B68012B0DD1444BA3
S1133B2001221A614D4B181C03F0AEFA01238E22B8
S1133B305200BA18136000F096FD3B68002B01D0C8
S1133B4000F091FD3A4B00221A61454B181C03F01A
S1133B509BFA01238E225200BA18136000F083FDF1
S1133B60BA68354B101C191C03F090FE031E23D1B8
S1133B703B68012B0DD1314B01221A61394B181CC2
S1133B8003F082FA01238E225200BA18136000F067
S1133B906AFD3B68002B01D000F065FD274B002235
S1133BA01A61314B181C03F06FFA01238E22520064
S1133BB0BA18136000F057FDBA68224B101C191C88
S1133BC003F064FE031E01D000F04DFD3B68012BA1
S1133BD00DD11D4B01221A61244B181C03F054FA19
S1133BE001238E225200BA18136000F03CFD3B689A
S1133BF0002B01D000F037FD134B00221A611C4B3F
S1133C00181C03F041FA01238E225200BA181360E3
S1133C1000F029FD14B8000048B80000F8B4000012
S1133C2078F0FF1F54B800008CB8000080B5000085
S1133C30A8F0FF1FC0B8000084B50000D8F0FF1F33
S1133C40F8B8000088B5000008F1FF1F2CB9000087
S1133C5064B9000070B900008CB90000ACB9000070
S1133C60C8B90000E8B9000004BA000024BA000092
S1133C7040BA0000FA68B84B101C191C03F006FE89
S1133C80031E01D000F0EFFCBA68B44B101C191CE1
S1133C9003F0FCFD031E00D0AAE07A68B04B101CB0
S1133CA0191C03F0F3FD031E13D1AE4B1B68D42281
S1133CB0B918AD4A081C111C1A1C03F02FFD01236E
S1133CC08E225200BA181360D423FB18181C03F078
S1133CD0DBF97A68A54B101C191C03F0D7FD031EF1
S1133CE013D1A04B5B68D422B918A14A081C111C3B
S1133CF01A1C03F013FD01238E225200BA1813601C
S1133D00D423FB18181C03F0BFF97A68994B101CD4
S1133D10191C03F0BBFD031E13D1924B9B68D422E4
S1133D20B918954A081C111C1A1C03F0F7FC01234E
S1133D308E225200BA181360D423FB18181C03F007
S1133D40A3F97A688D4B101C191C03F09FFD031E08
S1133D5014D1844B9B691C1CD423FA18884B101C67
S1133D60191C221C03F0DAFC01238E225200BA181B
S1133D701360D423FB18181C03F086F97A68814B6E
S1133D80101C191C03F082FD031E13D1754BDB6854
S1133D90D422B9187C4A081C111C1A1C03F0BEFC5E
S1133DA001238E225200BA181360D423FB18181C66
S1133DB003F06AF97A68754B101C191C03F066FD50
S1133DC0031E00D05CE2674B1B69D422B918704A09
S1133DD0081C111C1A1C03F0A1FCD423FB18181C8A
S1133DE003F052F901238E225200BA18136047E2FD
S1133DF0BA68684B101C191C03F048FD031E00D060
S1133E00D8E07A68564B101C191C03F03FFD031EC2
S1133E1013D1614B1B68D422B918604A081C111CC9
S1133E201A1C03F07BFC01238E225200BA18136083
S1133E30D423FB18181C03F027F97A684B4B101C89
S1133E40191C03F023FD031E13D1534B5B68D422CA
S1133E50B918534A081C111C1A1C03F05FFC0123F7
S1133E608E225200BA181360D423FB18181C03F0D6
S1133E700BF97A683F4B101C191C03F007FD031E55
S1133E8013D1454B9B68D422B918464A081C111C0F
S1133E901A1C03F043FC01238E225200BA1813604B
S1133EA0D423FB18181C03F0EFF87A68334B101C6A
S1133EB0191C03F0EBFC031E14D1374B9B691C1C2B
S1133EC0D423FA18384B101C191C221C03F026FCAE
S1133ED001238E225200BA181360D423FB18181C35
S1133EE003F0D2F87A68274B101C191C03F0CEFC9F
S1133EF0031E13D1284BDB68D422B9182B4A081CA3
S1133F00111C1A1C03F00AFC01238E225200BA1859
S1133F101360D423FB18181C03F0B6F87A681B4B03
S1133F20101C191C03F0B2FC031E00D0A8E11A4BAC
S1133F301B69D422B9181E4A081C111C1A1C03F050
S1133F40EDFBD423FB18181C03F09EF801238E22EA
S1133F505200BA18136093E160BA0000F8B400008C
S1133F60D0B5000078F0FF1F64BA000084BA0000E6
S1133F7090BA0000D8B60000ACBA0000A4B70000A4
S1133F80CCBA000048B80000E8BA000064B90000E8
S1133F9008BB000080B50000A8F0FF1F30BB000084
S1133FA050BB00006CBB00008CBB0000A8BB000031
S1133FB0C8BB0000BA68D24B101C191C03F066FC85
S1133FC0031E00D0AAE07A68CE4B101C191C03F023
S1133FD05DFC031E13D1CC4B1B68D422B918CB4A09
S1133FE0081C111C1A1C03F099FB01238E22520099
S1133FF0BA181360D423FB18181C03F045F87A6828
S1134000C34B101C191C03F041FC031E13D1BE4BFF
S11340105B68D422B918BF4A081C111C1A1C03F08F
S11340207DFB01238E225200BA181360D423FB189F
S1134030181C03F029F87A68B74B101C191C03F0FC
S113404025FC031E13D1B04B9B68D422B918B34A84
S1134050081C111C1A1C03F061FB01238E22520060
S1134060BA181360D423FB18181C03F00DF87A68EF
S1134070AB4B101C191C03F009FC031E14D1A24BFA
S11340809B691C1CD423FA18A64B101C191C221C57
S113409003F044FB01238E225200BA181360D42388
S11340A0FB18181C02F0F0FF7A689F4B101C191CB7
S11340B003F0ECFB031E13D1934BDB68D422B91835
S11340C09A4A081C111C1A1C03F028FB01238E2297
S11340D05200BA181360D423FB18181C02F0D4FF42
S11340E07A68934B101C191C03F0D0FB031E00D0FC
S11340F0C6E0854B1B69D422B9188E4A081C111CD2
S11341001A1C03F00BFBD423FB18181C02F0BCFF91
S113411001238E225200BA181360B1E0BA68864BAC
S1134120101C191C03F0B2FB031E00D0A8E07A682F
S1134130744B101C191C03F0A9FB031E13D17F4BF5
S11341401B68D422B9187E4A081C111C1A1C03F0DF
S1134150E5FA01238E225200BA181360D423FB1807
S1134160181C02F091FF7A68694B101C191C03F0AB
S11341708DFB031E13D1714B5B68D422B918714AAD
S1134180081C111C1A1C03F0C9FA01238E225200C8
S1134190BA181360D423FB18181C02F075FF7A6850
S11341A05D4B101C191C03F071FB031E13D1634BF0
S11341B09B68D422B918644A081C111C1A1C03F009
S11341C0ADFA01238E225200BA181360D423FB18CF
S11341D0181C02F059FF7A68514B101C191C03F08B
S11341E055FB031E14D1554B9B691C1CD423FA1890
S11341F0564B101C191C221C03F090FA01238E222A
S11342005200BA181360D423FB18181C02F03CFFA8
S11342107A68454B101C191C03F038FB031E13D19C
S1134220464BDB68D422B918494A081C111C1A1CD5
S113423003F074FA01238E225200BA181360D423B7
S1134240FB18181C02F020FF7A68394B101C191C4B
S113425003F01CFB031E13D1384B1B69D422B9187D
S11342603C4A081C111C1A1C03F058FAD423FB18EE
S1134270181C02F009FF01238E225200BA181360A1
S1134280BA68354B101C191C03F000FB031E6BD1DC
S11342907A68324B101C191C03F0F8FA031E00D084
S11342A0E1E1082003F006FA031C1A1C2C4B1A60E7
S11342B02B4B1B681A1CD423FB18101C191C0A2234
S11342C002F008FFD423FB18181C03F0ECFA031CBB
S11342D01A1CD423FB189A18224B111C1A1C1E23D7
S11342E0081C111C1A1C03F0B5FAD423FB18181C63
S11342F002F0CAFE01238E225200BA181360B2E102
S113430084B50000D0B50000D8F0FF1FF0BB00005A
S113431084BA000010BC0000D8B600002CBC000019
S1134320A4B700004CBC000048B8000068BC000002
S113433064B9000088BC000088B5000008F1FF1FC4
S1134340B0BC0000D0BC0000ECBC00000CBD000000
S113435028BD000048BD000070BD000074BD000011
S113436084F4FF1F7CBD0000BA68C74B101C191CE5
S113437003F08CFA031E37D17A68C44B101C191C45
S113438003F084FA031E00D06DE1092003F092F9D2
S1134390031C1A1CBE4B1A60BD4B1B681A1CD42389
S11343A0FB18101C191C0A2202F094FED423FB18DB
S11343B0181C03F078FA031C1A1CD423FB189A184F
S11343C0B44B111C1A1C1E23081C111C1A1C03F0CC
S11343D041FAD423FB18181C02F056FE01238E2246
S11343E05200BA1813603EE1BA68AB4B101C191C9A
S11343F003F04CFA031E37D17A68A44B101C191C25
S113440003F044FA031E00D02DE10C2003F052F90E
S1134410031C1A1C9E4B1A609D4B1B681A1CD42348
S1134420FB18101C191C0A2202F054FED423FB189A
S1134430181C03F038FA031C1A1CD423FB189A180E
S1134440944B111C1A1C1E23081C111C1A1C03F06B
S113445001FAD423FB18181C02F016FE01238E2245
S11344605200BA181360FEE0BA688C4B101C191C79
S113447003F00CFA031E00D0F5E07A68834B101C9D
S1134480191C03F003FA031E00D0ECE000238C2275
S11344905200BA18136000238A225200BA1813601B
S11344A07F4B181CFEF768FE7E4B181CFEF764FE5B
S11344B07D4B181CFEF760FE00238C225200BA18B4
S11344C013602CE0082003F0F5F8031C191C744B4E
S11344D08C225200BA1812689200D150092003F0BD
S11344E0E9F8031C191C6F4B8C225200BA1812688D
S11344F09200D1500C2003F0DDF8031C191C6A4B08
S11345008C225200BA1812689200D1508C235B009E
S1134510FB181B6801338C225200BA1813608C23D9
S11345205B00FB181B68312BCCDD5D4B181CFEF7C0
S1134530D9FD021C5D4B1A605A4B181CFEF7D2FDC4
S1134540021C5B4B1A60584B181CFEF7CBFD021C77
S1134550584B1A60554B1A689423FB18101C191CED
S11345600A2202F0B7FD524B1A685423FB18101CA0
S1134570191C0A2202F0AEFD4E4B1A681423FB18D4
S1134580101C191C0A2202F0A5FDD423FA18942346
S1134590FB18101C191C03F06CF9D423FB18181C0D
S11345A003F081F9031C1A1CD423FB189A18424BFC
S11345B0111C1A1C0223081C111C1A1C03F04AF9B2
S11345C0D423FA185423FB18101C191C03F051F9B6
S11345D0D423FB18181C03F066F9031C1A1CD423FB
S11345E0FB189A18344B111C1A1C0223081C111CAA
S11345F01A1C03F02FF9D423FA181423FB18101CE7
S1134600191C03F036F9D423FB18181C03F04BF9DA
S1134610031C1A1CD423FB189A18274B111C1A1CB0
S11346200223081C111C1A1C03F014F9D423FB18D0
S1134630181C03F038F9031C1A1CD423FB189A180D
S11346401E4B111C1A1C0A23081C111C1A1C03F0F3
S113465001F9D423FB18181C02F016FD01238E2245
S11346605200BA1813608E235B00FB181B68002BE2
S113467003D1134B181C02F007FD124B01221A60E0
S1134680C046BD4649B090BD9CBD000074BD00004D
S113469084F4FF1F7CBD0000A0BD0000A4BD000089
S11346A078F3FF1FDCF1FF1FA8F2FF1FA4F2FF1F26
S11346B074F3FF1F70F3FF1FA8BD0000ACBD000022
S11346C0B8BD0000C8F1FF1FB0B5C6B000AFF860B8
S11346D0B9607A6000238A225200BA181360FA681B
S11346E0C74B101C191C03F0D1F8031E00D04EE177
S11346F0BA68C44B101C191C03F0C8F8031E3BD144
S1134700C14B1B68002B2AD1C04B1B68002B26D140
S1134710BF4B1B68002B22D1BE4B1B68002B1ED144
S11347207B68012B0BD101F0C3FC01238A225200C8
S1134730BA181360B84B181C02F0A6FC0EE07B6894
S1134740002B0BD101F08EFA01238A225200BA18F1
S11347501360B24B181C02F097FC0BE00AE0012333
S11347608A225200BA181360AD4B181C02F08CFC5C
S113477001F0C4F901F0C2F9BA68AA4B101C191C63
S113478003F084F8031E3BD19F4B1B68002B2AD1F6
S11347909E4B1B68002B26D19D4B1B68002B22D1FE
S11347A09C4B1B68002B1ED17B68012B0BD101F0A5
S11347B0C5FC01238A225200BA1813609A4B181CB4
S11347C002F062FC0EE07B68002B0BD101F04AFA88
S11347D001238A225200BA181360904B181C02F06D
S11347E053FC0BE00AE001238A225200BA1813603A
S11347F08B4B181C02F048FC01F080F901F07EF9A3
S1134800BA688A4B101C191C03F040F8031E3BD1F4
S11348107D4B1B68002B2AD17C4B1B68002B26D1B7
S11348207B4B1B68002B22D17A4B1B68002B1ED1BB
S11348307B68012B0BD101F069FD01238A22520010
S1134840BA1813607A4B181C02F01EFC0EE07B6849
S1134850002B0BD101F006FA01238A225200BA1868
S113486013606E4B181C02F00FFC0BE00AE00123EE
S11348708A225200BA181360694B181C02F004FC17
S113488001F03CF901F03AF9BA686A4B101C191CA2
S113489002F0FCFF031E3BD15B4B1B68002B2AD1AB
S11348A05A4B1B68002B26D1594B1B68002B22D175
S11348B0584B1B68002B1ED17B68012B0BD101F0D8
S11348C0A3FB01238A225200BA1813605A4B181C06
S11348D002F0DAFB0EE07B68002B0BD101F0C2F989
S11348E001238A225200BA1813604C4B181C02F0A0
S11348F0CBFB0BE00AE001238A225200BA181360B2
S1134900474B181C02F0C0FB01F0F8F801F0F6F870
S1134910BA684A4B101C191C02F0B8FF031E30D1B0
S1134920474B1B68002B21D17B68012B0CD101F074
S113493081FB01238A225200BA181360414B181CD0
S113494002F0A2FB01F0DAF87B68002B01D001F041
S1134950D5F801F087F901238A225200BA181360AE
S11349602E4B181C02F090FB01F0C8F801238A2298
S11349705200BA1813602A4B181C02F085FB01F090
S1134980BDF8314B181C02F07FFB01F0B7F8FA6850
S11349902E4B101C191C02F079FF031E62D17B6898
S11349A0012B17D101238A225200BA181360284B15
S11349B001221A60274B181C02F066FBBB68181C06
S11349C001F098FD244B244A526880210A435A601E
S11349D001F094F87B68002B01D001F08FF81F4B95
S11349E001221A601A4B01221A6001238A22520002
S11349F0BA1813601A4B181C02F046FB01F07EF83B
S1134A00E8B40000E4BD0000A4F1FF1FA8F1FF1FFB
S1134A10ACF1FF1FB0F1FF1FECBD000018BE000099
S1134A2050BE00007CBE000084BE0000B0BE00008A
S1134A30B8BE0000E4BE0000ECBE000018BF0000D9
S1134A40BCF1FF1F20BF000054BF00007CBF00006A
S1134A50C8F1FF1F84BF000040F00F40B8F1FF1FF2
S1134A60ACBF0000FA68E64B101C191C02F00EFFE4
S1134A70031E01D000F02EFDBA68E24B101C191C75
S1134A8002F004FF031E15D1DF4B1B68D422B918B2
S1134A90DE4A081C111C1A1C02F040FE01238A2263
S1134AA05200BA181360D423FB18181C02F0ECFA55
S1134AB001F024F8BA68D64B101C191C02F0E6FE6B
S1134AC0031E15D1D34B1B68D422B918D24A081C33
S1134AD0111C1A1C02F022FE01238A225200BA1869
S1134AE01360D423FB18181C02F0CEFA01F006F868
S1134AF0BA68CA4B101C191C02F0C8FE031E15D15B
S1134B00C74B1B68D422B918C64A081C111C1A1CAE
S1134B1002F004FE01238A225200BA181360D4233F
S1134B20FB18181C02F0B0FA00F0E8FFBA68BE4B9C
S1134B30101C191C02F0AAFE031E15D1BB4B1B68E6
S1134B40D422B918BA4A081C111C1A1C02F0E6FD3A
S1134B5001238A225200BA181360D423FB18181CAC
S1134B6002F092FA00F0CAFFBA68B24B101C191C8A
S1134B7002F08CFE031E15D1AF4B1B68D422B9186A
S1134B80AE4A081C111C1A1C02F0C8FD01238A221B
S1134B905200BA181360D423FB18181C02F074FADC
S1134BA000F0ACFFBA68A64B101C191C02F06EFE94
S1134BB0031E25D1A34B1B68181CFDF775FF031CAE
S1134BC00C1C181C211C00229F4BFCF7E5FC031C49
S1134BD00C1C251C1C1CD423FA189C4B101C191CDF
S1134BE0221C2B1C02F09AFD01238A225200BA18BF
S1134BF01360D423FB18181C02F046FA00F07EFF61
S1134C00BA68934B101C191C02F040FE031E25D1F8
S1134C10904B1B68181CFDF747FF031C0C1C181C49
S1134C20211C0022884BFCF7B7FC031C0C1C251C20
S1134C301C1CD423FA18884B101C191C221C2B1C76
S1134C4002F06CFD01238A225200BA181360D423A7
S1134C50FB18181C02F018FA00F050FFBA687F4BDA
S1134C60101C191C02F012FE031E15D17C4B1B688C
S1134C70D422B9187B4A081C111C1A1C02F04EFDE0
S1134C8001238A225200BA181360D423FB18181C7B
S1134C9002F0FAF900F032FFBA68734B101C191CC9
S1134CA002F0F4FD031E15D1704B1B68D422B91811
S1134CB06F4A081C111C1A1C02F030FD01238A22C1
S1134CC05200BA181360D423FB18181C02F0DCF944
S1134CD000F014FFBA68674B101C191C02F0D6FDD3
S1134CE0031E15D1644B1B68D422B918634A081CEF
S1134CF0111C1A1C02F012FD01238A225200BA1858
S1134D001360D423FB18181C02F0BEF900F0F6FE61
S1134D10BA685B4B101C191C02F0B8FD031E15D1B8
S1134D20584B1B68D422B918574A081C111C1A1C6A
S1134D3002F0F4FC01238A225200BA181360D4232F
S1134D40FB18181C02F0A0F900F0D8FEBA684F4B0B
S1134D50101C191C02F09AFD031E15D14C4B1B6844
S1134D60D422B9184B4A081C111C1A1C02F0D6FC98
S1134D7001238A225200BA181360D423FB18181C8A
S1134D8002F082F900F0BAFEBA68434B101C191CF9
S1134D9002F07CFD031E15D13D4B1B68D422B918CB
S1134DA03C4A081C111C1A1C02F0B8FC01238A227C
S1134DB05200BA181360D423FB18181C02F064F9CB
S1134DC000F09CFEBA68354B101C191C02F05EFD05
S1134DD0031E69D1324B1B68D422B918314A081C0E
S1134DE0111C1A1C02F09AFC01238A225200BA18E0
S1134DF01360D423FB18181C02F046F900F07EFE61
S1134E0060BA0000D4BF000040F1FF1FDCBF000007
S1134E10F4BF000044F1FF1FFCBF000014C00000F9
S1134E2048F1FF1F20C0000040C000004CF1FF1FEC
S1134E304CC0000068C0000098F1FF1F78C000005B
S1134E4094C0000038F1FF1F00408F40A0C0000054
S1134E50BCC000003CF1FF1FC8C00000ECC0000053
S1134E6050F1FF1FFCC0000014C10000A4F1FF1F9B
S1134E701CC100002CC10000A8F1FF1F34C10000B8
S1134E8044C10000ACF1FF1F4CC100005CC1000034
S1134E90B0F1FF1F64C1000074C100007CC10000B8
S1134EA0C0F1FF1F84C10000BA68DC4B101C191C40
S1134EB002F0ECFC031E16D1D94B5B8C1C1CD423D2
S1134EC0FA18D84B101C191C221C02F027FC0123D1
S1134ED08A225200BA181360D423FB18181C02F05B
S1134EE0D3F800F00BFEBA68CF4B101C191C02F06B
S1134EF0CDFC031E16D1CA4B1B8C1C1CD423FA18E0
S1134F00CA4B101C191C221C02F008FC01238A2223
S1134F105200BA181360D423FB18181C02F0B4F81A
S1134F2000F0ECFDBA68C24B101C191C02F0AEFC78
S1134F30031E16D1BF4B5B8C1C1CD423FA18BE4B2A
S1134F40101C191C221C02F0E9FB01238A225200C6
S1134F50BA181360D423FB18181C02F095F800F05B
S1134F60CDFDBA68B54B101C191C02F08FFC031E52
S1134F7016D1B04B1B8C1C1CD423FA18B04B101C3C
S1134F80191C221C02F0CAFB01238A225200BA18FF
S1134F901360D423FB18181C02F076F800F0AEFD61
S1134FA0BA68A84B101C191C02F070FC031E16D121
S1134FB0A54B5B8C1C1CD423FA18A44B101C191C85
S1134FC0221C02F0ABFB01238A225200BA181360A0
S1134FD0D423FB18181C02F057F800F08FFDBA68B0
S1134FE09B4B101C191C02F051FC031E16D1964B4E
S1134FF01B8C1C1CD423FA18964B101C191C221C45
S113500002F08CFB01238A225200BA181360D423C5
S1135010FB18181C02F038F800F070FDBA688E4BCB
S1135020101C191C02F032FC031E17D18B4B5C6A56
S11350301B6AD422B9188A4A081C111C1A1C231C86
S113504002F06CFB01238A225200BA181360D423A5
S1135050FB18181C02F018F800F050FDBA68814BD8
S1135060101C191C02F012FC031E17D17E4B5C6A43
S11350701B6AD422B9187D4A081C111C1A1C231C53
S113508002F04CFB01238A225200BA181360D42385
S1135090FB18181C01F0F8FF00F030FDBA68744BDF
S11350A0101C191C02F0F2FB031E17D1714B5C6A31
S11350B01B6AD422B918704A081C111C1A1C231C20
S11350C002F02CFB01238A225200BA181360D42365
S11350D0FB18181C01F0D8FF00F010FDBA68674BEC
S11350E0101C191C02F0D2FB031E17D1644B5C6A1E
S11350F01B6AD422B918634A081C111C1A1C231CED
S113510002F00CFB01238A225200BA181360D42344
S1135110FB18181C01F0B8FF00F0F0FCBA685A4BF9
S1135120101C191C02F0B2FB031E17D14B4BDC6A96
S11351309B6AD422B918554A081C111C1A1C231C3A
S113514002F0ECFA01238A225200BA181360D42325
S1135150FB18181C01F098FF00F0D0FCBA684C4B07
S1135160101C191C02F092FB031E17D13E4BDC6A83
S11351709B6AD422B918474A081C111C1A1C231C08
S113518002F0CCFA01238A225200BA181360D42305
S1135190FB18181C01F078FF00F0B0FCBA683E4B15
S11351A0101C191C02F072FB031E17D1314BDC6A70
S11351B09B6AD422B918394A081C111C1A1C231CD6
S11351C002F0ACFA01238A225200BA181360D423E5
S11351D0FB18181C01F058FF00F090FCBA68304B23
S11351E0101C191C02F052FB031E5DD1244BDC6A17
S11351F09B6AD422B9182B4A081C111C1A1C231CA4
S113520002F08CFA01238A225200BA181360D423C4
S1135210FB18181C01F038FF00F070FC94C100006A
S113522000F0FF1FA0C10000B4C10000C0C1000015
S1135230D4C1000028F0FF1FE0C10000F4C1000049
S113524000C2000014C2000050F0FF1F20C2000082
S113525034C2000040C2000054C2000078F0FF1FB6
S113526060C2000074C20000A8F0FF1F80C20000EA
S113527094C20000D8F0FF1FA0C20000B4C2000016
S113528008F1FF1FC0C20000D4C20000E0C2000049
S1135290F4C2000000C3000014C3000020C30000D7
S11352A034C3000040C30000BA68D84B101C191C5A
S11352B002F0ECFA031E15D1D54B1B68D422B918A1
S11352C0D44A081C111C1A1C02F028FA01238A2251
S11352D05200BA181360D423FB18181C01F0D4FE32
S11352E000F00CFCBA68CC4B101C191C02F0CEFA6E
S11352F0031E15D1C94B1B68D422B918C84A081C0F
S1135300111C1A1C02F00AFA01238A225200BA184C
S11353101360D423FB18181C01F0B6FE00F0EEFB5A
S1135320BA68C04B101C191C02F0B0FA031E15D148
S1135330BA4B1B68D422B918B94A081C111C1A1C90
S113534002F0ECF901238A225200BA181360D42324
S1135350FB18181C01F098FE00F0D0FBBA68B24BA1
S1135360101C191C02F092FA031E0AD1AF4B181C30
S113537001F08AFE01238A225200BA18136000F059
S1135380BDFBBA68AA4B101C191C02F07FFA031E5D
S113539015D1A84B1B68D422B918A74A081C111CA4
S11353A01A1C02F0BBF9D423FB18181C01F06CFE84
S11353B001238A225200BA18136000F09FFBBA68D6
S11353C09E4B101C191C02F061FA031E15D19C4B54
S11353D01B68D422B9189B4A081C111C1A1C02F021
S11353E09DF9D423FB18181C01F04EFE01238A22D8
S11353F05200BA18136000F081FBBA68924B101C7B
S1135400191C02F043FA031E14D1904B1B68D422DA
S1135410B9188F4A081C111C1A1C02F07FF9D423F6
S1135420FB18181C01F030FE01238A225200BA181E
S1135430136063E3BA68874B101C191C02F026FA48
S1135440031E14D1844B1B68D422B918834A081C48
S1135450111C1A1C02F062F9D423FB18181C01F069
S113546013FE01238A225200BA18136046E3BA6875
S11354707B4B101C191C02F009FA031E14D1794B42
S11354801B68D422B918784A081C111C1A1C02F093
S113549045F9D423FB18181C01F0F6FD01238A22D8
S11354A05200BA18136029E3D423FB186F4A13CAB5
S11354B013C313CA13C313CA13C312781A70012374
S11354C08A225200BA181360D423FB18181C01F066
S11354D0DBFD13E3FA68664B101C191C02F0D6F9C5
S11354E0031E00D070E2BA68624B101C191C02F053
S11354F0CDF9031E0CD1604B7A681A6001238A220D
S11355005200BA1813605D4B181C01F0BDFDF5E2A2
S1135510BA685B4B101C191C02F0B8F9031E0CD1BD
S1135520584B7A681A6001238A225200BA18136011
S1135530554B181C01F0A8FDE0E2BA68534B101C4F
S1135540191C02F0A3F9031E0CD1514B7A681A609E
S113555001238A225200BA1813604E4B181C01F022
S113556093FDCBE2BA684C4B101C191C02F08EF967
S1135570031E0CD1494B7A681A6001238A22520017
S1135580BA181360464B181C01F07EFDB6E2BA68E7
S1135590444B101C191C02F079F9031E0CD1424B28
S11355A07A681A6001238A225200BA1813603F4BAA
S11355B0181C01F069FDA1E2BA683D4B101C191CCE
S11355C002F064F9031E0CD13A4B7A681A60012385
S11355D08A225200BA181360374B181C01F054FD8C
S11355E08CE2BA68354B101C191C02F04FF9031EEB
S11355F06AD1334B7A681A6001238A225200BA189E
S11356001360304B181C01F03FFD77E254C30000D7
S113561060F1FF1F60C3000074C3000064F1FF1F4A
S113562080C3000094C30000A0C30000A8C300000E
S1135630C0C300009CF1FF1FC8C30000D8C3000012
S1135640A0F1FF1FE0C30000F0C3000054F1FF1FEE
S1135650F8C3000008C4000058F1FF1F14C4000080
S113566028C400005CF1FF1F30C4000040C40000E7
S1135670CCB50000D4BF000040F1FF1F68C4000097
S1135680F4BF000044F1FF1F98C4000014C00000E0
S113569048F1FF1FC8C4000040C000004CF1FF1FC8
S11356A0F8C4000068C0000098F1FF1F28C500007E
S11356B094C0000038F1FF1F5CC50000BCC00000AE
S11356C03CF1FF1F90C50000BA68D54B101C191C93
S11356D002F0DCF8031E0DD17B689AB2D14B5A84D8
S11356E001238A225200BA181360CF4B181C01F010
S11356F0CBFC03E2BA68CD4B101C191C02F0C6F8AF
S1135700031E0DD17B689AB2C64B1A8401238A22E8
S11357105200BA181360C64B181C01F0B5FCEDE139
S1135720BA68C44B101C191C02F0B0F8031E0DD14A
S11357307B689AB2C04B5A8401238A225200BA1859
S11357401360BE4B181C01F09FFCD7E1BA68BC4B38
S1135750101C191C02F09AF8031E0DD17B689AB232
S1135760B54B1A8401238A225200BA181360B54B30
S1135770181C01F089FCC1E1BA68B34B101C191C58
S113578002F084F8031E0DD17B689AB2AF4B5A84A1
S113579001238A225200BA181360AD4B181C01F081
S11357A073FCABE1BA68AB4B101C191C02F06EF829
S11357B0031E0DD17B689AB2A44B1A8401238A225A
S11357C05200BA181360A44B181C01F05DFC95E15B
S11357D0BA68A24B101C191C02F058F8031E11D110
S11357E07868FDF761F9031C0C1C9D4A9362D4622E
S11357F001238A225200BA1813609A4B181C01F034
S113580043FC7BE1BA68984B101C191C02F03EF86B
S1135810031E11D17868FDF747F9031C0C1C934A49
S11358209362D46201238A225200BA181360904B07
S1135830181C01F029FC61E1BA688E4B101C191C7C
S113584002F024F8031E11D17868FDF72DF9031C2A
S11358500C1C894A9362D46201238A225200BA182A
S11358601360864B181C01F00FFC47E1BA68844BA7
S1135870101C191C02F00AF8031E11D17868FDF7F8
S113588013F9031C0C1C7F4A9362D46201238A22FD
S11358905200BA1813607C4B181C01F0F5FB2DE183
S11358A0BA687A4B101C191C01F0F0FF031E0CD1CE
S11358B0774B7A681A6001238A225200BA1813605F
S11358C0744B181C01F0E0FB18E1BA68724B101C11
S11358D0191C01F0DBFF031E0CD1704B7A681A60AF
S11358E001238A225200BA1813606D4B181C01F070
S11358F0CBFB03E1BA686B4B101C191C01F0C6FF0B
S1135900031E0CD1684B7A681A6001238A22520064
S1135910BA181360654B181C01F0B6FBEEE0BA68C8
S1135920634B101C191C01F0B1FF031E0CD1614B19
S11359307A681A6001238A225200BA1813605E4BF7
S1135940181C01F0A1FBD9E0BA685C4B101C191CAF
S113595001F09CFF031E0CD1594B7A681A60012395
S11359608A225200BA181360564B181C01F08CFBA3
S1135970C4E0BA68544B101C191C01F087FF031EC5
S11359800CD1524B7A681A6001238A225200BA1849
S113599013604F4B181C01F077FBAFE0BA684D4B16
S11359A0101C191C01F072FF031E00D0A6E04A4B24
S11359B07A681A6001238A225200BA181360474B8E
S11359C0181C01F061FB99E0FA68454B101C191C86
S11359D001F05CFF031E00D090E0424B1B68002BDB
S11359E000D087E0BA68404B101C191C01F04EFF30
S11359F0031E00D082E07B68012B06D100F072FE0A
S1135A003A4B181C01F040FB78E07B68002B75D101
S1135A1000F028F9364B181C01F036FB6EE0C04646
S1135A2094C1000000F0FF1FC4C50000B4C1000011
S1135A30F4C50000D4C1000028F0FF1F24C60000F4
S1135A40F4C1000054C6000014C2000050F0FF1F4F
S1135A5084C6000034C20000B4C60000E4C60000DE
S1135A6078F0FF1FF0C6000020C70000A8F0FF1F59
S1135A702CC700005CC70000D8F0FF1F68C70000F7
S1135A8098C7000008F1FF1FA4C7000054C300001A
S1135A9060F1FF1FD4C7000074C3000064F1FF1F4E
S1135AA004C8000094C3000068F1FF1F34C800005C
S1135AB0C0C300009CF1FF1F68C80000F0C30000D1
S1135AC054F1FF1F98C8000008C4000058F1FF1FDC
S1135AD0C4C8000028C400005CF1FF1FF8C800001F
S1135AE024C90000B4F1FF1F30C9000038C9000008
S1135AF018BE00000A4B181C01F0C6FA8A235B008A
S1135B00FB181B68002B03D1064B181C01F0BCFAD0
S1135B10054B01221A60C046BD4646B0B0BDC04622
S1135B206CC90000B8BD0000C8F1FF1F80B582B089
S1135B3000AF786039607B683A689A60C046BD46B9
S1135B4002B080BD80B582B000AF786039607B68F8
S1135B503A685A60C046BD4602B080BD80B582B086
S1135B6000AF786039607B683A689A617B685B69EA
S1135B70012B04D13B68181C01F048FC19E07B6838
S1135B805B69022B04D13B68181C01F095FC10E002
S1135B907B685B69032B04D13B68181C01F0E2FCB1
S1135BA007E07B685B69042B03D13B68181C01F098
S1135BB0D9FCC046BD4602B080BDC04680B582B0A7
S1135BC000AF78607B6801221A617B685B69012BF6
S1135BD003D1112001F04AF816E07B685B69022BBF
S1135BE003D1122001F042F80EE07B685B69032BBD
S1135BF003D1132001F03AF806E07B685B69042BBB
S1135C0002D1132001F032F8C046BD4602B080BD77
S1135C1080B582B000AF78607B6800221A617B682F
S1135C205B69012B03D1112001F036F816E07B6883
S1135C305B69022B03D1122001F02EF80EE07B6881
S1135C405B69032B03D1132001F026F806E07B687F
S1135C505B69042B02D1132001F01EF8C046BD4637
S1135C6002B080BD80B500AF104B01221A60104B0A
S1135C70181CFFF7CDFF0F4B181CFFF7C9FF0E4B85
S1135C80181CFFF7C5FF0D4B181CFFF7C1FF084B8D
S1135C9000221A61074B00221A61074B00221A6185
S1135CA0064B00221A61BD4680BDC046B8F1FF1FF5
S1135CB078F0FF1FA8F0FF1FD8F0FF1F08F1FF1FA7
S1135CC080B582B000AF78607B681B68002B00DC75
S1135CD0E1E07B689B68002B6DD17B68DB695A1C13
S1135CE07B68DA617B685B69012B11D1C24BC24AC4
S1135CF0D26804210A43DA60BF4BBF4A926802218A
S1135D000A439A607B681B685A1E7B681A606FE1BD
S1135D107B685B69022B12D1B74BB74AD2688021EA
S1135D20C9050A43DA60B44BB34A926840210A4376
S1135D309A607B681B685A1E7B681A6058E17B680E
S1135D405B69032B18D1AD4BAC4AD26840210A439E
S1135D50DA60AA4BA94A926820210A439A60A64BAA
S1135D60A54A5268802189050A435A607B681B68EA
S1135D705A1E7B681A603BE17B685B69042B00D088
S1135D8036E19E4B9D4AD26840210A43DA609A4B21
S1135D90994A92688021C9020A439A60964B964AAE
S1135DA05268802149020A435A607B681B685A1E64
S1135DB07B681A601CE17B689B68012B00D017E1AB
S1135DC07B68DB695A1E7B68DA617B685B69012B3F
S1135DD010D1894B884AD26804210A43DA60864B81
S1135DE0854A526802210A435A607B681B685A1E1E
S1135DF07B681A607B685B69022B11D17E4B7E4AFB
S1135E00D2688021C9050A43DA607B4B7A4A52681A
S1135E1040210A435A607B681B685A1E7B681A60DB
S1135E207B685B69032B17D1744B744AD268402199
S1135E300A43DA60714B714A526820210A435A605E
S1135E406D4B6D4A5268802189050A435A607B680C
S1135E501B685A1E7B681A607B685B69042B00D040
S1135E60C6E0664B654AD26840210A43DA60624B59
S1135E70614A52688021C9020A435A605E4B5E4AF5
S1135E805268802149020A435A607B681B685A1E83
S1135E907B681A60ADE07B685B69012B08D1112037
S1135EA000F0FAFE544B544A926804210A439A6063
S1135EB07B685B69022B09D1122000F0EDFE4E4B8A
S1135EC04D4A92688021C9050A439A607B685B69E0
S1135ED0032B1AD14A4B1B69002B16D1132000F057
S1135EE0DBFE464B454A926840210A439A60424B86
S1135EF0414A9268802189050A439A603E4B3E4A92
S1135F009268802149020A439A607B685B69032B8B
S1135F1025D13B4B1B69012B21D1394B1B68002B2D
S1135F2016D1132000F0B8FE344B344A9268402155
S1135F300A439A60304B304A9268802189050A43AB
S1135F409A602D4B2C4A9268802149020A439A6038
S1135F50294B294A9268802189050A439A607B6803
S1135F605B69042B1AD1274B1B69002B16D1132014
S1135F7000F092FE214B214A926840210A439A6024
S1135F801D4B1D4A9268802189050A439A601A4B69
S1135F90194A9268802149020A439A607B685B69C6
S1135FA0042B25D1174B1B69012B21D1154B1B68E1
S1135FB0002B16D1132000F06FFE104B0F4A92688D
S1135FC040210A439A600C4B0B4A92688021890550
S1135FD00A439A60084B084A9268802149020A439E
S1135FE09A60054B044A9268802149020A439A60E8
S1135FF0C046BD4602B080BD40F00F4080F00F4067
S113600008F1FF1FD8F0FF1F80B500AF00F06AFB56
S1136010074B01221A6000F04BF800F08FF800F0F3
