S02100004175746F6D61746564546170656472697665436F6E74726F6C2E73726563DA
S1130000F8FEFF1F110400004D0400004D04000021
S113001000000000000000000000000000000000DC
S11300200000000000000000000000004D0400007B
S113003000000000000000004D0400004D0400001A
S11300404D0400004D0400004D0400004D04000068
S11300504D0400004D0400004D0400004D04000058
S11300604D0400004D0400004D0400004D04000048
S11300704D0400004D040000997700004D04000079
S11300804D040000A9770000B9770000C97700008B
S11300904D0400004D0400004D0400004D04000018
S11300A04D0400004D0400004D0400004D04000008
S11300B04D0400004D0400004D0400004D040000F8
S1130400FFFFFFFFFFFFFFFFFFFFFFFFFFFFFEFFF9
S113041072B60848084901600848804762B608492E
S1130420084A094B9B1A03DD043BC858D050FBDC37
S113043003F0D8F808ED00E00000000021360000C9
S1130440F8D9000000F0FF1FD0F1FF1F004800475B
S11304504D04000002B47146490849000956490098
S11304608E4402BC7047C04602B471464908490034
S1130470095C49008E4402BC7047C04603B471460F
S1130480490840004900095E49008E4403BC704796
S1130490002243088B4274D303098B425FD3030ABF
S11304A08B4244D3030B8B4228D3030C8B420DD3D2
S11304B0FF22090212BA030C8B4202D31212090260
S11304C065D0030B8B4219D300E0090AC30B8B429E
S11304D001D3CB03C01A5241830B8B4201D38B034C
S11304E0C01A5241430B8B4201D34B03C01A5241F1
S11304F0030B8B4201D30B03C01A5241C30A8B4234
S113050001D3CB02C01A5241830A8B4201D38B021E
S1130510C01A5241430A8B4201D34B02C01A5241C2
S1130520030A8B4201D30B02C01A5241CDD2C30934
S11305308B4201D3CB01C01A524183098B4201D3B0
S11305408B01C01A524143098B4201D34B01C01A9B
S1130550524103098B4201D30B01C01A5241C30813
S11305608B4201D3CB00C01A524183088B4201D382
S11305708B00C01A524143088B4201D34B00C01A6E
S11305805241411A00D20146524110467047FFE7DA
S113059001B5002000F0FCF802BDC0460029F7D0E8
S11305A003B5FFF775FF0EBC4243891A1847C046CE
S11305B003460B437FD4002243088B4274D30309C0
S11305C08B425FD3030A8B4244D3030B8B4228D361
S11305D0030C8B420DD3FF22090212BA030C8B4287
S11305E002D31212090265D0030B8B4219D300E027
S11305F0090AC30B8B4201D3CB03C01A5241830BAC
S11306008B4201D38B03C01A5241430B8B4201D35B
S11306104B03C01A5241030B8B4201D30B03C01A84
S11306205241C30A8B4201D3CB02C01A5241830AFE
S11306308B4201D38B02C01A5241430A8B4201D32D
S11306404B02C01A5241030A8B4201D30B02C01A57
S11306505241CDD2C3098B4201D3CB01C01A5241BE
S113066083098B4201D38B01C01A524143098B4247
S113067001D34B01C01A524103098B4201D30B0130
S1130680C01A5241C3088B4201D3CB00C01A524155
S113069083088B4201D38B00C01A524143088B421A
S11306A001D34B00C01A5241411A00D201465241B3
S11306B0104670475DE0CA0F00D04942031000D3D2
S11306C04042534000229C4603098B422DD3030A27
S11306D08B4212D3FC22890112BA030A8B420CD337
S11306E0890192118B4208D3890192118B4204D360
S11306F089013AD0921100E08909C3098B4201D3E0
S1130700CB01C01A524183098B4201D38B01C01A19
S1130710524143098B4201D34B01C01A5241030990
S11307208B4201D30B01C01A5241C3088B4201D33F
S1130730CB00C01A524183088B4201D38B00C01AEC
S11307405241D9D243088B4201D34B00C01A5241C3
S1130750411A00D20146634652415B10104601D350
S11307604042002B00D54942704763465B1000D3DA
S1130770404201B5002000F00BF802BD0029F8D07A
S113078003B5FFF715FF0EBC4243891A1847C0464C
S11307907047C0468446101C62468C46191C63464A
S11307A000E0C0461FB501F07FFD002801D4002100
S11307B0C8421FBD10B501F0C3FC4042013010BD5A
S11307C010B501F071FD002801DB002010BD0120EF
S11307D010BDC04610B501F067FD002801DD002002
S11307E010BD012010BDC04610B501F0EDFC00287D
S11307F001DC002010BD012010BDC04610B501F081
S1130800E3FC002801DA002010BD012010BDC04621
S1130810002B11D1002A0FD1002900D1002802D0C9
S11308200021C943081C07B4024802A140180290E1
S113083003BDC0465DFFFFFF03B4684601B50298DF
S113084000F04CF8019B9E4602B00CBC7047C046B9
S1130850F0B54F46464605042D0C2C1CC0B41704B5
S1130860160C3F0C9946030C7C4375435F4373435A
S11308707D19260CAD199C46AF4203D980235B0237
S11308809846C4444B465143434324042E0C240C41
S11308902D0466442C1959188919201C0CBC904647
S11308A09946F0BDF0B583B0161C1F1C0090019151
S11308B002F0E8FC041C0D1C221C2B1C301C391CEF
S11308C0FFF7C6FF009A019B121A8B410899201C5E
S11308D00A604B60291C03B0F0BDC046F0B5141C7F
S11308E083B01D1C0090019102F0C4FD221C2B1C3E
S11308F0061C0F1CFFF7ACFF009A019B121A8B41D8
S11309000899301C0A604B60391C03B0F0BDC04626
S1130910F8B54A00430244004E02C50F240E281CB9
S11309209B09120EC90FB7098D4240D0A01A0028A6
S113093000DC84E0002A1CD1002F5CD15A0704D0CB
S11309400F221A40042A00D004338022D2041A4011
S1130950281C002A24D00134FF2C00D17BE09B0109
S11309605B0AE4B25B02E4055B0A2343C007184355
S1130970F8BDFF2CE2D08022D204174301261B28A5
S113098008DC391C20223E1CC140101A8640771E08
S1130990BE410E439B1B5A0133D4281C5A07CFD1A6
S11309A0DB08FF2C1ED05B025B0AE4B2DAE7A11A73
S11309B0002957DD002A3AD0FF2CBFD08022D20470
S11309C0174301261B2972DD9B195A01E5D5013411
S11309D0FF2C00D187E001218A4A194013405B08AB
S11309E00B43ABE7002B36D08022D20313435B02C8
S11309F05B0AFF24B6E7013800283FD1DB1B5A010C
S1130A00CBD59B019E09301C02F01EFC05388640A4
S1130A10844223DC001B1F24321C431C201ADA40AE
S1130A208640131C741EA6410024334386E7002F1E
S1130A3000D183E70139002950D1DB19C5E700282B
S1130A4020D1621CD2B2012A5EDDDE1B720128D5E0
S1130A50FE1A0D1CD7E7FF24002383E7694B241AF1
S1130A6033406BE7002958D1621CD1B201293CDD27
S1130A70FF2A37D0FB185B08141C5FE7FF2C00D05B
S1130A807CE75BE7002C1ED0FF2A23D08024E404FB
S1130A90404223431B285BDD0123FB1A141C0D1C5D
S1130AA0ADE7002EAFD100230020002478E73A1CE4
S1130AB0CA40944620223E1C511A8E406246771E3C
S1130AC0BE41164380E7002B3ED0C0430028E4D04B
S1130AD0FF2ADFD13B1CFF240D1C2FE7FF2C00D085
S1130AE06FE72BE7FF2400235AE7002C5AD1002B91
S1130AF07FD0002F00D121E7DB195A0100D44CE745
S1130B00404A0134134019E7002C15D1002B2FD192
S1130B10002F5DD03B1C0D1C10E7002C21D1002BB5
S1130B2053D0C943002904D0FF2A4BD01B2957DDD9
S1130B300123DB19141C48E7002B22D1002F4AD0D3
S1130B403B1C0D1CFF24F9E63B1C141C0D1CF5E694
S1130B501D1C2024C540201A8340581E83412B436A
S1130B609BE7FF2A2ED08024E40449422343DDE797
S1130B70002F00D1E2E6DA1B50013CD5FB1A0D1C14
S1130B80DCE6FF24002F00D1D8E68022DB08D20364
S1130B90134204D0FE08164201D1331C0D1CDB00A5
S1130BA0FF24CBE6002B0DD0FF24002F00D1C5E697
S1130BB08022DB08D2031342F1D0FE081642EED1A4
S1130BC0331CECE73B1CFF24B8E63B1C141CB5E6C5
S1130BD0231C0020E4E6802300209B04FF24DFE69E
S1130BE01E1C2024CE40611A8B40591E8B41334376
S1130BF09FE73B1CA2E6131E00D0CEE60023002094
S1130C00CEE6C046FFFFFFFBF0B556464D465F46B5
S1130C104446F0B443024500C70F83B08A465C0AD9
S1130C202E0EB94641D0FF2E26D080231B04234329
S1130C30DC00002398469B467F3E53465B025D0AD8
S1130C4053465A00DB0F120E9A4639D0FF2A33D08E
S1130C5080231B042B43DD0000237F3A5146B21A44
S1130C6046467940081C01921E430F2E00D976E0B7
S1130C707E4AB6009659B746002C30D108239846D0
S1130C80063B9B46D9E780230021DB03FF245B025C
S1130C90E4055B0AC90723430B43181C03B03CBC9F
S1130CA090469946A246AB46F0BD002C28D10423B9
S1130CB09846033B9B46C0E7002D1FD1022302E068
S1130CC0002D11D10123B21A5046464678400192B4
S1130CD01E430F2E27D86649B60089598F460C2328
S1130CE09846093B9B46A8E7281C02F0ADFA7622F9
S1130CF0431F52429D40121A0023AFE70323ADE77E
S1130D00201C02F0A1FA431F9C4076235B421E1A6A
S1130D10002398469B4690E70025D1469B465B46B8
S1130D204846022B6FD10121FF2401400023AEE786
S1130D307E23019A5B429B1A1B2B6DDD01214B46DE
S1130D40194000240023A2E78023DB031C4249D17D
S1130D508023DB0323435B025B0A391C96E76301B0
S1130D606D01AB4237D389461A2001215B1B012454
S1130D701E1C49005B00002E01DBAB4201D35B1B50
S1130D80214301380028F3D1581E83410B431D1C15
S1130D90019C7F34002CCBDD6B0704D00F232B4048
S1130DA0042B00D004352B0104D5019A314B803239
S1130DB0141C1D40FE2C07DD4B460121FF24194065
S1130DC0002364E7251CAAE701214A46AB015B0A1C
S1130DD0E4B211405BE7019A8946013A01921B2073
S1130DE00021C4E71D4207D023435B025B0A391C80
S1130DF04CE700256302ABD58023DB032B435B0266
S1130E005B0A514642E7032B25D0012BC0D10121B7
S1130E100024014000233AE7291CD9402B1C019AE5
S1130E209E3293405D1EAB410B435A0704D00F2200
S1130E301A40042A00D004335A0105D54B46012137
S1130E4001241940002322E701214A469B015B0A41
S1130E50114000241BE7802301214A46DB032B4376
S1130E605B020A405B0A111C10E7C046CCD60000A6
S1130E700CD70000FFFFFFF7F0B55F4656464D461E
S1130E804446F0B445024600C40F83B00F1C6D0AFB
S1130E90360EA34645D0FF2E25D080231B041D43C8
S1130EA000239A46ED007F3E01937B025B0A98463D
S1130EB07800FB0F000E994640D0FF2838D08023DD
S1130EC042461B041343DB00984600237F384A46FE
S1130ED0019F30186240411C1F430F2F69D87D4E7B
S1130EE0BF00F659B746002D45D108230193063BB0
S1130EF09A46DAE793465346022B2FD15B460124E8
S1130F0000251C40FF236D02DB056D0AE4071D4329
S1130F102543281C03B03CBC90469946A246AB46E8
S1130F20F0BD002D2CD104230193033B9A46BCE76A
S1130F3043465A4253410322D31AC8E74246012387
S1130F40002AC4D0404602F07FF94246431F9A402B
S1130F5076235B42181A90460023B8E7032B00D18E
S1130F60ADE0012B00D08CE05B4654461C40E4B25B
S1130F7000230025C7E70C230193093B9A4694E715
S1130F80281C02F061F97626431F9D400023764217
S1130F90361A01939A4688E780250024ED03FF233F
S1130FA0B1E74546CB469A46A5E7454693469A4659
S1130FB0A1E743462C041B0C9C46230C4446260400
S1130FC01C1C360C2F0C7443351C66467D4373433E
S1130FD07743EB18260C9E19B54203D980235B0294
S1130FE09C46674424043304240C1B199D016C1E85
S1130FF0A5419B0E360C2B43BD19AD011D432B019E
S113100004D5012368081D400543081C031C7F33D5
S1131010002B2CDD690704D00F212940042900D0BE
S11310200435290103D52C4B1D40031C8033FE2BB2
S113103017DD0124FF231440002564E78020C0034A
S1131040054209D04346034206D1454605436D0295
S11310506D0A4C46FF2356E705436D026D0AFF23D4
S113106051E70124AD016D0ADBB214404BE77E2346
S11310705B421B1A1B2B07DD0124002314400025AF
S113108041E7081C5A46C1E79E30291C8540D940D7
S1131090681E85410D436B0704D00F232B40042B9E
S11310A000D004356B0104D501240123144000252C
S11310B029E70124AD016D0A1440002323E78023AE
S11310C0DB031D4301245B466D0223401C1C6D0A97
S11310D0FF2318E74CD70000FFFFFFF7F8B54A00DD
S11310E0430244004D02C00F240E061C9B09120E3D
S11310F0C90FAD09FF2A00D175E001277940884264
S113110050D0A01A002800DC8FE0002A1ED1002D48
S113111000D075E05A0704D00F221A40042A00D0E8
S1131120043380220120D2041A403040002A32D0F5
S11311300134FF2C00D184E09B015B0AE4B25B0222
S1131140E4055B0A2343C0071843F8BDFF2CE1D034
S11311508022D20415431B287ADD01255B1B5A012A
S11311605DD59B019F09381C02F06EF80538874055
S1131170844269DC001B1F243A1C431C201ADA40F9
S11311808740131C7C1EA74100243B43C2E7131E67
S113119045D100230020DB08FF2C28D05B025B0A2A
S11311A0E4B2CCE7A11A00295BDD002A2ED0FF2C83
S11311B0B0D08022D20415431B2974DC2F1C2022BA
S11311C0CF40511A8D40691E8D413D435B195A0130
S11311D025D50134FF2C74D001217E4A19401340D7
S11311E05B080B4396E7002D00D088E785E7002BCA
S11311F027D08022D20313435B025B0AFF249EE7BD
S113120001380028AAD0FF2CA5D183E7002D00D1F6
S113121080E701390029D9D0FF2CCDD17AE75A07CC
S113122000D079E701203040B5E7002825D1621CC1
S1131230D2B2012A55DD5F1B7A012DD5EF1A0E1C9F
S113124091E7FF2400237AE7624B241A3B4061E7CD
S1131250291C2022C140101A8540681E85410D4377
S11312607CE7002946D1621CD1B201292BDDFF2A7B
S113127026D0EB185B08141C4CE7002C15D0FF2A71
S11312801AD08024E404404223431B284DDD01236B
S1131290EB1A141C0E1C62E7002F00D063E7002336
S11312A00020002477E7012590E7002B39D0C043C4
S11312B00028EDD0FF2AE8D12B1CFF240E1C29E7BF
S11312C0FF24002367E7002C5AD1002B7FD0002D88
S11312D000D11FE75B195A01A1D53E4A01341340DE
S11312E018E7002C15D1002B2FD1002D5ED02B1C1C
S11312F00E1C0FE7002C21D1002B54D0C943002928
S113130004D0FF2A4CD01B2958DD01235B19141C7F
S11313105DE7002B23D1002D4BD02B1C0E1CFF248A
S1131320F8E62B1C141C0E1CF4E61E1C2024C640DC
S1131330201A8340581E83413343A9E7FF2A2FD044
S11313408024E40449422343DDE7002D00D1E1E693
S11313505A1B500100D41AE7EB1A0E1CDAE6FF24DC
S1131360002D00D1D6E68022DB08D203134204D03C
S1131370ED08154201D12B1C0E1CDB00FF24C9E62D
S1131380002B0DD0FF24002D00D1C3E68022DB0802
S1131390D2031342F1D0ED081542EED12B1CECE739
S11313A02B1CFF24B6E62B1C141CB3E6231C0020C4
S11313B0F1E6802300209B04FF24ECE61F1C20247C
S11313C0CF40611A8B40591E8B413B439EE72B1C37
S11313D0A0E6C046FFFFFFFB4202510A4200C30FD2
S11313E0120E00207E2A0DDD9D2A0CDC80200004D4
S11313F00143952A0ADC9620821AD1400A1C5842DD
S11314004240D0187047034A9818FBE7963A914037
S11314100A1CF4E7FFFFFF7F70B5041E39D0C50F27
S113142000D04442201C01F00FFF9E23261C1B1AEF
S1131430962B07DC082801DD083884406402640A1E
S1131440D8B21EE0992B0ADD0522211C121AD140C4
S11314500A1C011C1B318E40711E8E411643052847
S113146001DD421F96400F4C3440720704D00F2216
S11314701640042E00D0043462010ED4A401640A80
S1131480D8B26402C005640AED0704432C43201C4F
S113149070BD002500200024F3E7024B1C409F236D
S11314A01B1AEBE7FFFFFFFBF0B5454657464E46D8
S11314B094464C000A03C90FE0B488460E1C190375
S11314C0470FC500480A6146490F01436046520A66
S11314D01743C0005A00640D520DDB0F8446984533
S11314E000D1A7E0A01A002800DC01E1002A3DD1C8
S11314F063460B4300D0D4E06B0700D188E00F2390
S11315002B40042B00D183E02A1DAA42AD41802345
S11315106D427F191B043B404646151C002B00D12D
S11315207CE0CC4B01349C4200D1FDE03A1CCA4B18
S1131530ED081A405007640552020543120B640D6E
S1131540002112030B0D1B056405120B1A436308DB
S1131550C24CF60714401C43640064083443281C3E
S1131560211C1CBC90469946A246F0BDB94B9C4236
S1131570C2D080231B041943382800DDECE01F2867
S113158000DD21E120220E1C6346121A9640C3405E
S1131590334366469640321C561EB24113430A1C1E
S11315A0C240EB1A9D42B6411D1CBA1A7642971BE3
S11315B03B0200D497E07A02560A002E00D1B6E02E
S11315C0301C01F041FE031C083B1F2B00DDB7E07B
S11315D09E40371C28262A1C361AF240161C9D40B1
S11315E03E439C4200DDB2E01C1B621C1F2A00DD4E
S11315F0D8E01F23291C1C1B331CA540A340D14049
S11316006C1EA541D64019430D43371C002473E7D3
S113161080231B043B40464600D082E78D4BED08F7
S113162078070543FA089C4232D012036405120B72
S1131630640D85E7A31A002B00DC94E0002A3CD05B
S1131640844A944200D157E7802212041143382B74
S113165000DC05E163461943481E81410022C8B2FB
S11316604019A8429B41051CD2195B42D7183B0282
S113167039D5784B01349C4200D14CE10120764AA3
S11316806B083A4028401843D5070543570833E709
S11316902B1C134348D080231B031A431203120B41
S11316A04EE70138002878D16346EE1AB5429B41D3
S11316B07A1A5B42D71A351C7AE7021C0A4300D116
S11316C01AE7013B002B00D0F2E04019A8429B41ED
S11316D0CA195B42D718051CC9E7131C334300D150
S11316E018E1171C351C46466B0700D007E795E741
S11316F000287AD1621C5205520D012A00DCFBE05D
S11317006246AA1A9542B6419146781A7242861ADE
S1131710320200D493E06246551BAC458041CF1B96
S113172040423E1A984648E70022002508E7281C54
S113173001F08AFD2030031C083B1F2B00DC47E727
S1131740283885402E1C00259C4200DC4CE7424A88
S1131750E41A1640371CCFE6634619434B1E9941E1
S11317600022CBB21DE7002B00D0F2E0601C430541
S11317705B0D012B00DCA4E0364B984200D121E143
S113178063465C19AC429B41CF195B42FA1864086A
S1131790D50725435708041CAEE62E4B9C4200D0C7
S11317A0EAE6A9E6211C331C1F39CB40191C202A68
S11317B000D182E03F231C1BA64035436E1EB54179
S11317C000270D4300248EE7031C0E1C203BDE4043
S11317D0202874D040231B1A99400B1C62461343E3
S11317E0591E8B4100223343DBE6002C50D0194CA8
S11317F0A24200D1A8E08024240440422743382890
S113180000DDD9E01F2800DD39E120243E1C241A24
S1131810A640B0462E1CA146C640444626434C462C
S1131820A5406C1EA541C74035436046451BCF1BF0
S1131830AC45894149427F1A141C9846B8E64B4688
S11318404D46334300D0B8E6002600270024002587
S1131850E4E6C046FF070000FFFF7FFFFFFF0F80A5
S11318601F2B5BDC2022081CD21A90408146604664
S11318709246D8404A4610438146524660469040BC
S1131880021C501E8241484610430A1CDA40E7E617
S11318903C1C2C4358D0C043002851D16046451B02
S11318A0AC458041CF1B40423F1A141C98467FE64A
S11318B08F4A944200D0CAE61EE600267DE7002344
S11318C08CE73B1C2B43002C00D0BDE0002B00D147
S11318D0F5E063460B4300D10EE663465B19AB4269
S11318E08041CA19404217183A0200D4FCE0814AE8
S11318F01D1C17400134FFE53A1C2A43002C51D12A
S1131900002A00D085E062460A4303D00F1C6546D6
S11319109846F1E50026002700257FE6181C0A1CDE
S11319202038C240202B00D1A7E04020C01A8140BB
S1131930081C63461843411E8841104300228FE669
S11319406B4CA24200D05AE70F1C6546141C984603
S1131950D2E5002C3AD1381C284371D0DB43002B4C
S113196018D0634882426BD0382B00DD9DE01F2BDA
S113197000DDA7E020203C1CC01A8440A1462C1C9A
S11319808246DC404846044350468540681E8541F3
S1131990DF402543654465459B417F185B42FF1842
S11319A0141C64E6002A19D162460A4377D00F1C3E
S11319B0654698464E4C9FE53D436F1EBD4100274A
S11319C0EDB232E7041C0027002527E6484882428E
S11319D036D0802000045B420743C5E762460A43D1
S11319E049D08024ED087807FA08240328432242CA
S11319F009D0CE08264206D162464F07381CD208C9
S1131A0010439846321CD200470F1743C500384C88
S1131A1072E562460A4300D16EE56246AE1AB542EB
S1131A209241781A5242821A100200D455E6624654
S1131A30551BAC458041CA1B4042171A98465BE5CA
S1131A400F1C6546141C57E5002B34D063460B432A
S1131A5011D08024ED087807FA0824032843224291
S1131A60D1D0CB082342CED162464F07381CD208CE
S1131A7010431A1CC7E71E4C3EE5002059E7041C1E
S1131A803E1C203CE640341C20282BD04026301A33
S1131A9087403D436F1EBD4100272543C5E680278F
S1131AA00026FF03124C0025B8E53D436F1EBD41DF
S1131AB00027EDB26EE70F1C65460D4C1CE50F1CAC
S1131AC0654619E51C1C381C203CE040041C202BF6
S1131AD00CD04020C31A9F403D436F1EBD410027D8
S1131AE0254357E70027D4E71D1CFCE50027F3E74F
S1131AF0FF070000FFFF7FFFF0B55F4656464D46E7
S1131B004446F0B40F0387B098464D003B0BCC0F0E
S1131B10061C924681469B466D0D01946BD0664B24
S1131B209D4235D080275B467F031F43F3009946CF
S1131B30624BFF00400F9C4607430023BB46002630
S1131B4065440093424617035000D20F53463F0B9F
S1131B50400D904600D172E0574A904267D08023EE
S1131B605B031F435346554A5B0FFF001F439446D4
S1131B7053460021DB0060444246624092462D1ADF
S1131B800E430F2E00D9A1E04D48B6008059874678
S1131B905B461E4300D076E000239B469946023301
S1131BA008260093CEE799464346BB46019300912D
S1131BB0009B022B6BD1019B9A46002153460122C4
S1131BC0002789461A403C4B00213F030C0D240595
S1131BD03F0B27433B4C1B0527401F437F00D20785
S1131BE07F0817434846391C07B03CBC90469946C9
S1131BF0A246AB46F0BD03433ED05B46002B00D16A
S1131C009CE1584601F020FB2823311C1B1A021CBE
S1131C105F46D940083A97400B1C96403B439B468D
S1131C20B1460023284D00262D1A00938AE7524618
S1131C3003213A43A0D10027002302219CE7524606
S1131C403A4315D0002F00D185E1381C01F0FCFA8D
S1131C50021C28215046891A131CC8405146083BCF
S1131C6099409F400B1C074317480021801A83E7C3
S1131C700027002301217FE700239B469946013377
S1131C80042600935EE703230C2600935AE7032BF4
S1131C9000D13CE2012B00D0BFE11A1C019B1A4089
S1131CA000210023002789468EE7002380279946D8
S1131CB000223F03004B87E7FF07000001FCFFFF02
S1131CC08CD70000FFFF0F800DFCFFFFBB4500D940
S1131CD051E100D14CE14A46039200225C46904611
S1131CE0013D180E3F0238431B020193030C994631
S1131CF003041B0C4946061C201C1F1C0093FEF702
S1131D00C7FB021C7A4302904946201C171CFEF7AD
S1131D1045FC039B09041B0C19438F420CD9029BFD
S1131D208919013B8E4200D952E18F4200D84FE11C
S1131D30029B8919023B0293CC1B201C4946FEF7E7
S1131D40A7FB009F834647434946201CFEF726FC19
S1131D50039A0B041404240C23439F420DD95A46BE
S1131D609B19013A9E4200D930E19F4200D82DE1EF
S1131D700222524294469B19E344029ADB1B170445
S1131D805A463A439346019C170C220C101C0492A9
S1131D905A4611042204120C141C090C7C430592AB
S1131DA04A43414347436118100C09188C4203D934
S1131DB080204002844667440C0C12040804120C70
S1131DC03C198118A34200D2E5E000D1DFE01F1BDB
S1131DD043465C1AA04592415242BF1AB74200D111
S1131DE00EE1381C4946FEF753FB009B0290434327
S1131DF04946381C9846FEF7D1FB230C0F041F43B9
S1131E00B8450CD9029BBF19013BBE4200D9FBE087
S1131E10B84500D8F8E0029BBF19023B0293434641
S1131E20FF1A4946381CFEF733FB009B03904343DB
S1131E304946381C9846FEF7B1FB24040904240CD7
S1131E40214388450CD9039B8919013B8E4200D953
S1131E50DCE0884500D8D9E0039B8919023B039351
S1131E604346C91A029B039A1B04059C1A43100C8F
S1131E7013049146221C049F1B0C5A4344437B4386
S1131E807843E318170CDB199C4203D980246402BD
S1131E90A44660441C0C12041B04120C00199B1869
S1131EA0814200D296E000D1FCE04A4601231A4365
S1131EB091469B4BEB18002B00DC99E04A465207F5
S1131EC00AD00F2249460A40042A05D00431494564
S1131ED092418946524293445A46D20106D55A4603
S1131EE0904B1A4080239346DB00EB188E4A9342B2
S1131EF000DD62E64A465946D208490711435A466C
S1131F0089465702514601225B053F0B5B0D0A408F
S1131F105AE680205A460003024208D0074206D1FE
S1131F2007433F0399463F0B4246804B4CE65F46CE
S1131F3007433F033F0B221C7C4B45E601F084F929
S1131F40031C2030272800DC5EE6083B9E4000236B
S1131F50B346994665E6504601F076F9021C2032F4
S1131F60272A00DC75E657460838874000237BE6BD
S1131F70994500D2AFE65A46594654084A46C8071E
S1131F805208024303924A46D2079046A9E6002724
S1131F90884500D31CE7019F5A46BC46E044B84537
S1131FA0BF417F42BF19FF18013ABE4206D2BC426C
S1131FB05FD800D19FE03F1B934609E7B742FAD1AF
S1131FC0019B4345F3D9371B934601E79346D4E677
S1131FD00293B1E64A468919013A8E4218D99146CC
S1131FE0814200D061E7019A9A4200D05DE760E740
S1131FF04F4F7F1B382F13DD012253461A404FE603
S113200001235B42994654E7029308E7039327E7C9
S113201088423CD874D0914647E7019B9A4648E7EA
S11320201F2F44DC434B4A469C465B466544FA40BA
S1132030AB4013434A46AA40151C6A1E95415A46B2
S1132040FA402B43171C5A0709D00F221A40042ABE
S113205005D01A1D9A429B415B42FF18131C3A0299
S11320603ED55346012200211A4000270123894608
S1132070AAE502235B429C46019AE3449446E04469
S113208090459B415B429B19DF193F1BA0E6019FD2
S11320904A467C00BC42BF417F42BF19023AC9197B
S11320A001949CE7002B95D1002201929BE75A46AC
S11320B0214B5B1BDA40202F27D0204B9C465B46EC
S11320C06544AB4049460B43591E8B4113430722D9
S11320D000271A4007D00F2200271A40042AB8D13B
S11320E07A077F023F0BDB081343994601225346CC
S11320F01A40002368E54145BBD89346002767E6AC
S1132100019C9C42C3D391466DE70023DAE7802704
S11321105B463F031F433F033F0B019A034B53E5C9
S1132120FF030000FFFFFFFEFE070000FF070000A3
S113213002FCFFFF1E040000E2FBFFFF3E04000060
S1132140F0B55F464D4644465646F0B41F035C0066
S1132150DB0F99461B4B0E034D00C90F8446360B0B
S11321606D0D8B4690463F0B640D9D420CD0154B74
S11321709C4210D00123A54214D0181C3CBC9046AC
S11321809946A246AB46F0BD311C01230143F4D16C
S11321900C4B9C42EED13A430123002AEDD101239A
S11321A0A542EAD1BE42E8D1C445E6D1CB4506D02A
S11321B0002DE2D13043031C581E8341DDE7002388
S11321C0DBE7C046FF070000F0B5574645464E46DC
S11321D0E0B40F034E00C90F8A4632491D035C0068
S11321E084463F0B760D90462D0B640DDB0F8E421B
S11321F00FD08C4239D0002E10D138434142414196
S11322008946002C27D12A4325D1002000290ED14C
S113221008E0391C01432ED1B44226D0002C0BD047
S11322209A450DD05346594201231943081C1CBC3E
S113223090469946A246F0BD2A43F3D09A45F1D17F
S1132240A642EFDC1ADA504641424841012341429A
S11322501943081CEBE74A46002AE1D0584258418A
S1132260012241421143081CE1E7291C114302D118
S1132270002EC2D0D4E702204042D8E7AF42D1D8E2
S113228009D00020AF42D2D25046414248410123F6
S113229040421843CBE7C445C4D80020C445F3D317
S11322A0C5E7C046FF070000F0B55F464D4644460B
S11322B056468046F0B4061C0803000B84462C489E
S11322C04C001F035D00C90F640D8B4691463F0B04
S11322D06D0DDB0F844212D0854225D0002C14D121
S11322E061460E4370424641002D35D0002E21D068
S11322F058425841012143420B43181C0EE06146E9
S1132300022031430AD1A5420ED0002D12D13A4306
S113231010D15B46594201231943081C3CBC90462A
S11323209946A246AB46F0BD391C02201143F5D1B3
S1132330002CD5D09B45ECD1AC42EADC05DBBC4596
S1132340E7D80FD00020BC45E8D258464142484166
S1132350414201200843E1E73A43C7D10020002E5F
S1132360DCD1D6E7C845D4D80020C845EDD3D5E79D
S1132370FF070000F0B55F4656464D464446F0B4AC
S1132380051C061C080387B099464F00030BCC0FAD
S113239092469B467F0D019467D06C4B9F4236D08A
S11323A080205B4640031843C0006B0F1843684B02
S11323B083469C4600239846EE00674400934B46B0
S11323C049461D03C90F5B0052462D0B5B0D894620
S11323D000D16EE05D498B4264D080205C494003AB
S11323E08C4600210543ED00500F0543D2006344A1
S11323F04846FF187B1C9A46009B604002900B43A2
S11324000F2B00D9ACE053489B00C3589F465B4652
S11324101D4300D082E00823009300239B4602332F
S113242000269846CBE7029B01934346022B59D1E1
S1132430012400250026019B1C40444B00212D0350
S11324400A0D12052D0B1543434A1B0515401D4368
S11324506D00E4076D082543301C291C07B03CBC03
S113246090469946A246AB46F0BD2B434ED05B4600
S1132470002B00D185E1584600F0E6FE021C28231B
S1132480291C9B1A161C5846D940083EB0400B1C08
S1132490B54003439B462E1C0023304F0093BF1AC4
S11324A098468CE7514629432ED10025002202216B
S11324B09EE75146294323D0002D00D154E1281C26
S11324C000F0C2FE031C28215046C91A1A1CC84039
S11324D05146083A914095400A1C05431F48002183
S11324E0C31A85E7032B00D1C2E1012B00D06DE1B3
S11324F04446019B00251C40E4B2002300269DE7CE
S113250000250022012173E7032171E704230093CE
S113251000239B4601330026984650E70C23009382
S1132520093B98464BE7802500242D030026074BE2
S113253084E74B46AB46161C0193884675E7029B1D
S1132540AB46161C019388466FE7C046FF070000A0
S113255001FCFFFFCCD70000FFFF0F800DFCFFFF45
S1132560330C3604360C9C46331C140C1204120C27
S113257053439846634653439946634663430193E2
S1132580331C41466343090C4B445B18994505D9F8
S1132590802040028146019949440191190C03911C
S11325A041460904090C1B045B1804932B0C984640
S11325B0331C2D04290C4B43604600934346654667
S11325C058435E43009B4D431B0C9946AE194E4441
S11325D08446B54203D980235B029946CC44350C2A
S11325E02B1C0398634484460593009B36041B0408
S11325F01B0CF3189C446046039058460504060CD3
S1132600280C84465043351C814660466543444348
S11326104846000C8346724314195C44A24203D911
S11326208022520293465D44220CAD184A4612049D
S1132630120C24044046A41862464A43714346439C
S113264060460096464670438046100C8446884493
S1132650E044414505D9802149028C4600996144F2
S11326600091019803998446614499429B415B42DD
S113267099460598434684461204120C1B049B1881
S113268063449C46AB4683429B4140460A19CC4472
S1132690A2428941E344CC45B6415C46000C8046E5
S11326A0494276425B426418334398448C428941E0
S11326B0AB459B4149425B4219430D1C009B454479
S11326C0EE187602E50D2E43B346049B56021E43D4
S11326D0731E9E415B46D20D324366021643DB01F4
S11326E00AD50123334076081E435B46DB071E43AD
S11326F05B465B089B465746634BFB18002B5ADD31
S1132700720709D00F223240042A05D0321DB2428A
S1132710B6417642B344161C5A46D20106D55A46EF
S11327205A4B1A4080239346DB00FB18584A9342C5
S113273034DD0124029B00251C400026554B7DE618
S113274080205B460003034208D0054206D10543BE
S11327502D032D0B4C46161C4E4B6FE65D46054370
S11327602D032D0B4B4B69E6504600F06DFD031C09
S11327702033272B00DCA6E6554608388540002286
S1132780ACE6281C00F060FD021C2032272A00DC85
S113279075E6083885400026AB467DE65A46F608BD
S11327A0520716435A4601245502029A5B052D0B23
S11327B05B0D144042E6384DED1B382D0ADD012433
S11327C0029B00251C400026002337E6019B574648
S11327D0029391E71F2D25DC304B321C9C46674445
S11327E0BE405B46BB40371CEA407E1EB7411343E4
S11327F03B431E1C5B46EB401D1C730709D00F2393
S11328003340042B05D0331DB342B6417642AD1993
S11328101E1C2B0220D50124029B00251C400026EF
S113282001230BE65A461E4BDB1BDA40131C202DFA
S11328301CD01C4A94465A466744BA40171C3E436F
S1132840721E96411E4307230025334007D00F23F1
S113285000253340042BD6D16B076D022D0B0124C8
S1132860F6081E43029B1C400023E7E50027E6E729
S113287080255B4601242D031D43019B2D0323402A
S11328801C1C2D0B034BD9E5FF030000FFFFFFFECB
S1132890FE070000FF07000002FCFFFF1E0400000B
S11328A0E2FBFFFF3E040000F0B54D4644465F46A0
S11328B05646F0B40E1C111C3203520A470F17433C
S11328C0C5001A035800DB0F9946520A4B0F83B018
S11328D01A43CB000193CF4B7400F60F640DB0463E
S11328E0400D984200D1E8E00123494659400B1CB1
S11328F09E4200D1B1E0261A002E00DC1CE1002823
S113290042D1131C01990B4300D0E6E06B0700D1C0
S11329108EE00F232B40042B00D189E02A1DAA420C
S1132920AD418023012641466D427F191B043B4083
S11329300E40151C002B00D183E0B64B01349C42A1
S113294000D116E13A1CB44BED081A405007640557
S113295052020543120B640D002112030B0D1B05DB
S11329606405120B1A436308AC4CF60714401C436D
S1132970640064083443281C211C03B03CBC90460A
S11329809946A246AB46F0BDA24B9C42BED08023E2
S11329901B041A43382E00DD03E11F2E00DD3FE146
S11329A02020831B9946131C49468B409C46019B5F
S11329B06046F34003430198F2408840011C481EDE
S11329C081410B43EB1A9D4280411D1CBA1A4042BF
S11329D0171A3B0200D4A8E07A02560A002E00D14E
S11329E0CAE0301C00F030FC031C083B1F2B00DD48
S11329F0CBE02822291C121AD1409E400A1C9D407B
S1132A0032439C4200DDC8E01C1B671C1F2F00DD05
S1132A10EDE01F23291C1C1B131CA540A340F940F7
S1132A206C1EA541FA4019430D43171C00246DE7A1
S1132A308023012642461B043B401640002B00D055
S1132A407BE7744BED0878070543FA089C423BD0BA
S1132A5012036405120B640D7EE7231A9A46002BB9
S1132A6000DCA5E0002844D06A48844200D14DE748
S1132A708020000402435346382B00DC1CE1019BF8
S1132A801A43511E8A41D1B200224919A9428041F8
S1132A900D1CD219404217183B0246D55D4B013438
S1132AA09C4200D169E101205B4A6B083A4028400E
S1132AB01843D5070543570828E7131C01990B430E
S1132AC000D111E74B4613E72B1C134351D080234D
S1132AD01B031A431203120B3EE7013E002E00D0E3
S1132AE080E0691A8D429B41BA1A5B42D71A0D1CC9
S1132AF06FE7101C019B184300D107E701235B42D9
S1132B009C46E2445346002B00D002E1019BD219BB
S1132B105919A9429B415B42D7180D1CBCE7634677
S1132B20034300D128E1071C65466B0700D0F0E69B
S1132B30012643461E4084E7002E00D081E0601C3D
S1132B404005400D012800DC07E10199681A84461C
S1132B506545B641B81A7642861B300200D4A1E01E
S1132B608C464D1BAC458941D21B4942561A9846A6
S1132B7034E700220025EFE6281C00F065FB203036
S1132B80031C083B1F2B00DC33E7021C283A95404A
S1132B902A1C00259C4200DC36E71F4FE41A17402C
S1132BA0B4E6019B1A43511E8A41D3B2002209E7BD
S1132BB0002B00D001E1601C43055B0D012B00DC00
S1132BC0B0E0144B984200D11EE1019BD21959196F
S1132BD0A9429B415B42D2184908D5070D435708C7
S1132BE0041C93E60B4B9C4200D0D3E68EE6211CDA
S1132BF0131C1F39CB40191C202F00D18EE03F231A
S1132C001C1BA24015436A1E954100270D43002456
S1132C108BE7C046FF070000FFFF7FFFFFFF0F8029
S1132C20331C101C203BD840202E79D040239B1B02
S1132C309A40131C019A1343591E8B4100220343EB
S1132C40C0E6002C53D0C74CA04200D1B0E0802491
S1132C5071428946240427434946382900DDCDE0E2
S1132C601F2900DD59E120243E1C611A8E408A464A
S1132C70B04649462E1CCE405146B4468D4064466B
S1132C804646494626436C1EA541CF40354301992B
S1132C90D71B8C464D1BAC4592415242BF1A041CB3
S1132CA0984696E663466546334300D096E600268A
S1132CB0002700240025C4E61F2B61DC2020C31A52
S1132CC09B46131C59468B4051469946019BCB4069
S1132CD09C464B46604603439C465B46019999409B
S1132CE06346481E814119435346DA40CDE63C1CF5
S1132CF02C435DD0F1438946002955D10199D21B5B
S1132D008C464D1BAC4589414942571A041C9846D0
S1132D105FE69448844200D0ADE6F7E5002271E70F
S1132D20002387E73B1C2B43002C00D0DAE0002B68
S1132D3000D113E1131C01990B4300D1E6E54919B5
S1132D40A9429B41D2195B42D7183B0200D421E12E
S1132D50854B0D1C1F40041CD8E5381C2843002C4F
S1132D6040D1002800D083E0101C0199084303D00F
S1132D70171C0D1C9846C9E500260027002560E6AF
S1132D805046131C2038C340181C5346202B00D136
S1132D90C1E0402351465B1A9A40019911434A1EEF
S1132DA091410022014370E66E4CA04200D053E7EB
S1132DB0171C019D041C9846A8E5002C28D13C1C36
S1132DC02C4300D18AE0DB439A46002B00D082E0FA
S1132DD0019BD2199C4665449D428941494257183A
S1132DE0041C59E600285BD1101C0199084300D14A
S1132DF0A4E0171C0D1C98465A4C87E53D436F1EF2
S1132E00BD410027EDB242E7041C0027002518E667
S1132E10544CA04262D0534680245B429A46240418
S1132E2027435346382B00DD8EE01F2B00DD9DE049
S1132E302024E31A9B463B1C59468B405146994635
S1132E402B1CCB409C464B46644623439C465B4626
S1132E509D4063466C1EA541CF401D43019BBF1896
S1132E609C4665449D4292415242BF18041C13E69D
S1132E70101C0199084300D148E5681A844685422C
S1132E808041BE1A4042301A060200D447E68C46FE
S1132E904D1BAC458941D21B4942571A984635E52A
S1132EA0101C0199084334D080247807ED08FF08EA
S1132EB024032843274208D0D608264205D1C9084E
S1132EC052070A43101C371C9846FF00420F174351
S1132ED0C500244C1AE5234CA042A2D1171C019D25
S1132EE0041C13E5002B35D0131C01990B4310D09F
S1132EF080247807ED08FF08240328432742E4D000
S1132F00D3082342E1D1C90852070A43101C1F1CED
S1132F10DBE7144CFAE400223FE74C463E1C203C1D
S1132F20E6404946341C202932D04026761AB74060
S1132F303D436F1EBD4100272543A8E68027002698
S1132F40FF03084C00257CE53D436F1EBD4100276F
S1132F50EDB283E7171C019D024CD7E4171C019DB9
S1132F60D4E4C046FF070000FFFF7FFF54463B1C2C
S1132F70203CE3401C1C5346202B0DD040235146DB
S1132F805B1A9F403D436F1EBD410027254365E703
S1132F900027CDE70D1CC8E50027F3E70B0330B588
S1132FA0134C1A0B4B00051C5B0DC90F0020A342E8
S1132FB010DD104883420EDC80200F4C4003024396
S1132FC0E41A1F2C0ADD0D48C31ADA40131C4842C8
S1132FD04340581830BD0A4BC818FBE7281CE04092
S1132FE0084CA44663449A40131C0343EFE7C046CD
S1132FF0FE0300001D04000033040000130400005D
S1133000FFFFFF7FEDFBFFFF38B5041E16D0C50F91
S113301000D04442201C00F017F9174B1B1A0A2851
S113302021DC021C211C153291400A1C0B21081AB8
S1133030C4405B052403240B5B0D03E0002500233F
S1133040002400220021101C24030A0D1205240B65
S113305014430A4A1B0514401C436400ED0764082A
S11330602C43211C38BD0B3884405B052403240BFE
S11330705B0D0022E6E7C0461E040000FFFF0F8040
S11330804200120E511C38B5C9B243025D0AC40F86
S1133090012915DDE02189008C466D071B0B624474
S11330A00021281C0D0D2D052B431C4D52052B40D2
S11330B0520813435B00E4075B082343191C38BD23
S11330C0002A15D1002D1FD0281C00F0BDF80A28B5
S11330D01DDC0B232A1C1B1ADA40131C021C15329C
S11330E095400F4A1B03121A52051B0B520DD7E7CA
S11330F0002D06D080221B0B120313436D07094ACF
S1133100CEE7084A0023CBE700220023C8E7031CCC
S11331100B3B9D402B1C0025E3E7C046FFFF0F80BF
S113312089030000FF07000070B50B034D00440F36
S11331306D0D5B0A23436C1C6405C90FC200640D4A
S1133140012C2ADD3B4C2C19FE2C1ADC002C35DD1D
S11331508001451EA841DB000343520F13435A0765
S113316004D00F221A40042A00D004338022D2044F
S11331701A4027D00134FF2C03D09B015B0AE4B230
S113318001E0FF2400235B02E4055B0A23435B00A8
S1133190C9075B080B43181C70BD002D06D11343EF
S11331A00ED100245B025B0AE4B2ECE71A43E8D0D8
S11331B08020DB0080040343FF24D0E717340CDABB
S11331C005230024DB08FF2CECD1002B2DD080221A
S11331D0D20313435B025B0AD5E780241648240418
S11331E02343401B1F280DDC144CA4466544AB400C
S11331F01C1C131CAB405D1EAB41C2402343134354
S11332000024ACE71E1C0E4C641BE640341C202832
S11332100DD00C4884466544AB401D1C2A43531E04
S11332209A41131C2343002499E70023ABE70025AC
S1133230F4E7C04680FCFFFF9E03000082FCFFFF12
S11332407E030000A2FCFFFF1C2101231B04984203
S113325001D3000C10391B0A984201D3000A083923
S11332601B09984201D30009043902A2105C4018DA
S11332707047C0460403020201010101000000007E
S113328000000000F0B544465F4656464D46F0B493
S11332901C1C85B0002900DAA9E00F1C0021061CC3
S11332A08846101C191C002C00DA97E0341C3D1CC5
S11332B082468946B94273D870D04946504600F0D8
S11332C085F98346391C301C00F080F95B46181AD6
S11332D0031C8346203B9C4600D59CE0002300222F
S11332E051460092019363469940019151468140B1
S11332F0019B0091BB4200D983E000D17EE0009A9B
S1133300019B341C3D1CA41A9D416346002B00DA2A
S11333109AE0002600270296039701369E40039602
S1133320012686400296002800D171E00099019A96
S1133330D30799464B464E081E43570800230122E3
S11333400CE0AF4201D1A6420AD8A41BBD41241906
S11333506D410138A4185D41002806D0AF42F0D970
S1133360013824196D410028F8D12022029E039FC0
S11333705B46524236196F4199185AD4281CC840EA
S11333802C1C5B46DC40002968DB041C8C40231C9D
S113339059468840021CB61A9F4103E0B0428CD9BA
S11333A00026002741464B1E9941002300910193BA
S11333B0009A019B002554429D41331C6340181C14
S11333C03B1C6B40191C009B019CC018614105B05B
S11333D03CBC90469946A246AB46F0BD4346DB430F
S11333E00C1C9846131C00215842A1415EE700279B
S11333F046428F4101214942884652E7B14200D8F2
S11334007DE70026002702960397002800D08DE769
S1133410029E039FC6E720215346091ACB4000228F
S1133420191C0023009201934B4683400B430193E4
S11334305CE75A4620239B1A2A1C9A40201C131C22
S11334405A46D04018439BE720260027331A00260B
S1133450029603970127DF40039761E75B4620212B
S11334605D46C91A031CAC40CB40191C231C0B43FA
S11334708EE7C046F0B545464E465746E0B4041CB8
S113348082B00D1C914698468B4262D85FD041466B
S1133490484600F09BF8291C061C201C00F096F8F6
S11334A02023311A5B428A46C81865D44B468340B0
S11334B01F1C4B468B401E1CAF4258D855D0A41B32
S11334C0BD41002800DA77E0002200230092019336
S11334D001328240019201238B40009300293CD0A9
S11334E0FB079846404672087B08024301260027E2
S11334F00CE0AB4201D1A2420AD8A41A9D4124197E
S11335006D410139A4197D41002906D0AB42F0D99F
S1133510013924196D410029F8D12022009801991C
S113352053465242001969419E183AD42F1CF74061
S11335305346DD40002E29DB3C1CB440231C54467A
S1133540A7403A1C801A99410090019105E08242FB
S11335509DD900230024009301940098019902B09E
S11335601CBC90469946A246F0BDA342A7D90022AE
S1133570002300920193B1E720224B46521AD34014
S11335801A1C43468B401F1C174392E753462024C2
S11335905646E41A3B1CB540E3401C1C2B1C234339
S11335A0CDE7524620239B1A2A1C9A40271C131C41
S11335B05246D7401F43BBE720230022581A00235A
S11335C0009201930132C240019284E710B50029B0
S11335D003D1FFF739FE203002E0081CFFF734FE68
S11335E010BDC04608F054FC08F060FC09480A4AC3
S11335F00021121A04F057FE08F07CFC08F0FAFBD4
S113360008F056FC0549002004F010F804F026FEEA
S1133610FEE7C046D0F1FF1FDCF5FF1FD0F1FF1F0E
S113362080B500AF054B064A9A80044B01225A70BC
S1133630024B23221A70BD4680BDC04600200540BF
S113364003E8FFFF80B586B000AF786000237B619C
S113365000233B6100233B6127E03B699B007A68C0
S1133660D3181B68002B07DD3B699B007A68D318CD
S11336701B68174A934206DD78690021FDF748F973
S1133680031C7B610EE03B699B007A68D3181B68BE
S1133690181CFDF7C1FE031C7869191CFDF738F9E5
S11336A0031C7B613B6901333B613B69312BD4DDF6
S11336B078690849FDF7A8FA031C7B617869FDF76E
S11336C08BFE031CFB60FB68181CBD4606B080BD66
S11336D0FF0F00000000484290B587B000AF78604B
S11336E000237B6100233B610023FB600023FB601C
S11336F027E0FB689B007A68D3181B68002B07DD62
S1133700FB689B007A68D3181B68474A934206DD1E
S113371078690021FDF7FCF8031C7B610EE0FB686F
S11337209B007A68D3181B68181CFDF775FE031CF0
S11337307869191CFDF7ECF8031C7B61FB68013305
S1133740FB60FB68312BD4DD78693849FDF75CFAFE
S1133750031C7B610023FB600023FB6040E0FB68EB
S11337609B007A68D3181B68002B07DDFB689B005D
S11337707A68D3181B682C4A934206DD3869002105
S1133780FDF7C6F8031C3B6127E0FB689B007A68E1
S1133790D3181B68181CFDF73FFE031C7869191C1D
S11337A0FDF79CFC031C1C1CFB689B007A68D31867
S11337B01B68181CFDF730FE031C7869191CFDF703
S11337C08DFC031C201C191CFDF756FB031C3869D7
S11337D0191CFDF79DF8031C3B61FB680133FB607A
S11337E0FB68312BBBDD38691149FDF70DFA031C69
S11337F0181CFFF745FC031C0C1C181C211C07F0AB
S1133800B9FC031C0C1C181C211CFFF78DFC031CA9
S11338103B613869FDF7E0FD031CBB60BB68181C05
S1133820BD4607B090BDC046FF0F000000004842EF
S11338300000444290B5C7B000AFF860B9607A6048
S11338403B6000238A225200BA181360FA68D84BEE
S1133850101C191C04F03AFD031E00D0A0E27A6883
S1133860D44B101C191C04F031FD031E00D0F5E1EB
S1133870BA68D14B101C191C04F028FD031E4ED14C
S11338803B68012B32D1CD4B1B69012B16D1CC4B9C
S1133890CB4A926801210A439A60C84B5A68C74BC5
S11338A01A60112003F0D8FE01238A225200BA18AC
S11338B01360C44B181C04F007F917E0BF4B1B69D5
S11338C0002B13D101238A225200BA181360BB4B78
S11338D01B69D022B918BC4A081C111C1A1C04F01C
S11338E03DFCD023FB18181C04F0EEF83B68002BB9
S11338F001D001F09FFCB24BB14A526801210A4346
S11339005A60112003F0BEFE01238A225200BA1825
S11339101360AE4B181C04F0D7F801F08BFCBA68A6
S1133920AB4B101C191C04F0D1FC031E50D13B6896
S1133930012B33D1A74B1B69012B17D1A64BA64AE8
S11339409268802189030A439A60A24B5A68A14B6A
S11339501A60122003F080FE01238A225200BA1852
S11339601360984B181C04F0AFF817E0994B1B69CF
S1133970002B13D101238A225200BA181360954BED
S11339801B69D022B918904A081C111C1A1C04F097
S1133990E5FBD023FB18181C04F096F83B68002BB9
S11339A001D001F047FC8C4B8B4A5268802189037B
S11339B00A435A60122003F065FE01238A22520052
S11339C0BA181360814B181C04F07EF801F032FC25
S11339D0BA68824B101C191C04F078FC031E4ED1EB
S11339E03B68012B32D17E4B1B69012B16D17D4BD9
S11339F07C4A926810210A439A60794B5A68784B42
S1133A001A60132003F028FE01238A225200BA18F8
S1133A1013606C4B181C04F057F817E0704B1B69CB
S1133A20002B13D101238A225200BA1813606C4B65
S1133A301B69D022B918644A081C111C1A1C04F012
S1133A408DFBD023FB18181C04F03EF83B68002BB8
S1133A5001D001F0EFFB634B624A526810210A4324
S1133A605A60132003F00EFE01238A225200BA1872
S1133A701360564B181C04F027F801F0DBFBBA68FE
S1133A80594B101C191C04F021FC031E50D13B6837
S1133A90012B33D1554B1B69012B17D1484B484A95
S1133AA09268802109030A439A60504B5A684F4B2D
S1133AB01A60132003F0D0FD01238A225200BA18A1
S1133AC01360404B181C03F0FFFF17E0474B1B69C2
S1133AD0002B13D101238A225200BA181360434BDE
S1133AE01B69D022B918384A081C111C1A1C04F08E
S1133AF035FBD023FB18181C03F0E6FF3B68002BB2
S1133B0001D001F097FB2E4B2D4A52688021090306
S1133B100A435A60132003F0B5FD01238A225200A0
S1133B20BA181360294B181C03F0CEFF01F082FB76
S1133B30BA682F4B101C191C04F0C8FB031E01D0DB
S1133B4001F078FB3B68012B68D1254B1B69013BD5
S1133B505A425341DAB2254B1B69013B59424B414E
S1133B60DBB21340DBB2002B44D01E4B1D4A9268DB
S1133B7010210A439A60124B114A9268802109036A
S1133B800A439A60194B5A68184B1A60144B5A68C6
S1133B90134B1A60132003F05FFD01238A225200A5
S1133BA0BA181360074B181C03F08EFF36E0C046AA
S1133BB028BF000030BF000038BF000078F0FF1FAE
S1133BC040F00F403CBF000060BF000090BF000009
S1133BD0C0BF0000B8F0FF1F00F00F40C4BF0000DA
S1133BE0F8F0FF1F80F00F40C8BF000038F1FF1F3E
S1133BF0CCBF000001238A225200BA181360DD4BA7
S1133C001B69D022B918DC4A081C111C1A1C04F0C8
S1133C10A5FAD023FB18181C03F056FF3B68002BB1
S1133C2001D001F007FBD54BD44A526810210A4356
S1133C305A60D34BD24A5268802109030A435A601E
S1133C40132003F01FFD01238A225200BA181360C7
S1133C50CC4B181C03F038FF01F0ECFA7A68CA4B1D
S1133C60101C191C04F032FB031E01D001F0E2FA0F
S1133C70BA68C64B101C191C04F028FB031E29D17A
S1133C803B68012B10D1C24B01225A63112003F06F
S1133C90E3FC01238A225200BA181360BD4B181C9E
S1133CA003F012FF01F0C6FA3B68002B01D001F0CB
S1133CB0C1FAB74B00225A63112003F0E3FC01233D
S1133CC08A225200BA181360B34B181C03F0FCFE8E
S1133CD001F0B0FABA68B14B101C191C04F0F6FAE2
S1133CE0031E29D13B68012B10D1AD4B01225A632D
S1133CF0122003F0B1FC01238A225200BA18136087
S1133D00A84B181C03F0E0FE01F094FA3B68002B6A
S1133D1001D001F08FFAA24B00225A63122003F063
S1133D20B1FC01238A225200BA1813609E4B181C5E
S1133D3003F0CAFE01F07EFABA689C4B101C191CF1
S1133D4004F0C4FA031E01D001F074FA3B68012B9D
S1133D5010D1884B01225A63132003F07DFC012308
S1133D608A225200BA181360914B181C03F0ACFE5F
S1133D7001F060FA3B68002B01D001F05BFA7D4B47
S1133D8000225A63132003F07DFC01238A2252008F
S1133D90BA181360874B181C03F096FE01F04AFA18
S1133DA0FA68854B101C191C04F090FA031E01D00C
S1133DB000F09DFB7A68814B101C191C04F086FAF4
S1133DC0031E66D13B68002B5FDDBA686F4B101C85
S1133DD0191C04F07BFA031E0FD16D4A3B68101CBA
S1133DE0191C02F049FC01238A225200BA181360FC
S1133DF0734B181C03F068FE4BE0BA68674B101C49
S1133E00191C04F063FA031E0FD1654A3B68101CA9
S1133E10191C02F031FC01238A225200BA181360E3
S1133E20684B181C03F050FE33E0BA68664B101C54
S1133E30191C04F04BFA031E0FD1644A3B68101C92
S1133E40191C02F019FC01238A225200BA181360CB
S1133E505F4B181C03F038FE1BE0BA68534B101C70
S1133E60191C04F033FA031E13D1424A3B68101C98
S1133E70191C02F001FC01238A225200BA181360B3
S1133E80544B181C03F020FE03E0534B181C03F0A2
S1133E901BFE7A68514B101C191C04F017FA031E00
S1133EA000D0ACE03B68002B03D03B68012B00D072
S1133EB09CE0BA68354B101C191C04F007FA031E69
S1133EC00FD1334A3B68101C191C02F0C9FB0123B3
S1133ED08A225200BA181360414B181C03F0F4FDF7
S1133EE047E0BA682D4B101C191C04F0EFF9031EAF
S1133EF00FD12B4A3B68101C191C02F0B1FB0123A3
S1133F008A225200BA181360364B181C03F0DCFDE9
S1133F102FE0BA682C4B101C191C04F0D7F9031EAF
S1133F200FD12A4A3B68101C191C02F099FB01238B
S1133F308A225200BA1813602B4B181C03F0C4FDDC
S1133F4017E0BA68194B101C191C04F0BFF9031EC2
S1133F500FD1084A3B68101C191C02F081FB012395
S1133F608A225200BA1813601F4B181C03F0ACFDD0
S1133F7045E044E038F1FF1FD0BF000080F00F405F
S1133F8040F00F4090BF00000CC0000038BF00009C
S1133F9078F0FF1F10C0000048C00000C0BF000040
S1133FA0B8F0FF1F80C00000B8C00000C8BF000008
S1133FB0F0C0000028C1000060C1000064C100001E
S1133FC06CC10000A0C10000C4BF0000F8F0FF1FD6
S1133FD0D4C1000008C200003CC200006CC2000052
S1133FE070C20000A4C20000D8C2000001238A22CB
S1133FF05200BA181360CB4B181C03F065FD7A68A5
S1134000C94B101C191C04F061F9031E00D07AE09E
S11340103B68002B03DC3B68C44A93426ADCBA6801
S1134020C34B101C191C04F051F9031E0FD13B683B
S1134030C04A101C191C02F02BFB01238A225200D7
S1134040BA181360BC4B181C03F03EFD51E0BA686B
S1134050BA4B101C191C04F039F9031E0FD13B682C
S1134060B74A101C191C02F013FB01238A225200C8
S1134070BA181360B04B181C03F026FD39E0BA6877
S1134080B04B101C191C04F021F9031E0FD13B681E
S1134090AD4A101C191C02F0FBFA01238A225200BB
S11340A0BA181360A44B181C03F00EFD21E0BA6883
S11340B0A64B101C191C04F009F9031E0FD13B6810
S11340C0A34A101C191C02F0E3FA01238A225200AD
S11340D0BA181360984B181C03F0F6FC09E001238E
S11340E08A225200BA1813609A4B181C03F0ECFC95
S11340F009E008E001238A225200BA181360964BA3
S1134100181C03F0E1FC7A68944B101C191C04F091
S1134110DDF8031E00D0A9E0BA68854B101C191CF9
S113412004F0D4F8031E22D13B68012B02DC3B6867
S1134130072B12DC7F4B3A68DA607E4BDB68181C75
S113414003F09CFE01238A225200BA181360844BA8
S1134150181C03F0B9FCC04688E001238A225200EF
S1134160BA1813607F4B181C03F0AEFC7EE0BA68EB
S1134170724B101C191C04F0A9F8031E22D13B68D1
S1134180012B02DC3B68072B12DC6D4B3A68DA60CA
S11341906B4BDB68181C03F0C7FE01238A22520014
S11341A0BA181360704B181C03F08EFCC0465DE017
S11341B001238A225200BA1813606A4B181C03F0B8
S11341C083FC53E0BA685F4B101C191C04F07EF8A2
S11341D0031E22D13B68012B02DC3B68072B12DC57
S11341E0594B3A68DA60584BDB68181C03F0F2FE4E
S11341F001238A225200BA1813605C4B181C03F086
S113420063FCC04632E001238A225200BA181360CC
S1134210544B181C03F058FC28E0BA684B4B101C94
S1134220191C04F053F8031E20D13B68012B02DC57
S11342303B68072B11DC464B3A68DA60444BDB6879
S1134240181C03F0C7FE01238A225200BA18136017
S1134250474B181C03F038FC08E001238A22520063
S1134260BA1813603F4B181C03F02EFC7A68414BBC
S1134270101C191C04F02AF8031E00D0D3E0BA68FD
S11342802B4B101C191C04F021F8031E20D13B6891
S1134290012B0CD1274B01221A61374B181C03F058
S11342A013FC01238A225200BA181360BBE03B6856
S11342B0002B00D0B7E01F4B00221A612F4B181CB3
S11342C003F002FC01238A225200BA181360AAE008
S11342D0BA681A4B101C191C03F0F8FF031E53D1C3
S11342E03B68012B0CD1164B01221A61244B181C7C
S11342F003F0EAFB01238A225200BA18136092E009
S11343003B68002B00D08EE00D4B00221A611D4B40
S1134310181C03F0D9FB01238A225200BA18136037
S113432081E0C0460CC3000038C30000083D000013
S113433038BF000078F0FF1F40C30000C0BF00007A
S1134340B8F0FF1FC4BF0000F8F0FF1FC8BF000093
S113435038F1FF1F74C30000A8C30000DCC30000D1
S1134360E8C3000020C4000054C400008CC4000052
S1134370C0C40000F8C4000004C5000020C500004B
S113438040C500005CC50000BA68D44B101C191C61
S113439003F09CFF031E1FD13B68012B0CD1D04BB3
S11343A001221A61CF4B181C03F08EFB01238A22D1
S11343B05200BA18136036E03B68002B33D1C84B67
S11343C000221A61C84B181C03F07EFB01238A22C9
S11343D05200BA18136026E0BA68C44B101C191CAA
S11343E003F074FF031E1ED13B68012B0CD1C04B9C
S11343F001221A61BF4B181C03F066FB01238A22B9
S11344005200BA1813600EE03B68002B0BD1B84B76
S113441000221A61B84B181C03F056FB01238A22B0
S11344205200BA1813607A68B44B101C191C03F0BC
S11344304DFF031E01D000F0FDFEBA68B04B101C06
S1134440191C03F043FF031E0DD1AE4B3A681A63E7
S1134450AD4B181C03F038FB01238A225200BA1812
S1134460136000F0E7FEBA68A84B101C191C03F097
S11344702DFF031E0DD1A64B3A681A63A54B181CD9
S113448003F022FB01238A225200BA18136000F0C1
S1134490D1FEBA68914B101C191C03F017FF031EC0
S11344A00DD18F4B3A681A639B4B181C03F00CFB1D
S11344B001238A225200BA18136000F0BBFEBA68C6
S11344C08A4B101C191C03F001FF031E01D000F0DD
S11344D0B1FE874B3A681A63904B181C03F0F4FA48
S11344E001238A225200BA18136000F0A3FEFA686E
S11344F08B4B101C191C03F0E9FE031E01D000F0C5
S113450099FEBA687E4B101C191C03F0DFFE031ED3
S113451000D023E17A68834B101C191C03F0D6FEEB
S1134520031E13D1774B1B68D022B9187E4A081C8E
S1134530111C1A1C03F012FE01238A225200BA181D
S11345401360D023FB18181C03F0BEFA7A68774B6B
S1134550101C191C03F0BAFE031E13D1694B5B68CF
S1134560D022B918724A081C111C1A1C03F0F6FD5B
S113457001238A225200BA181360D023FB18181C96
S113458003F0A2FA7A686B4B101C191C03F09EFE10
S1134590031E13D15B4B9B68D022B918664A081CD2
S11345A0111C1A1C03F0DAFD01238A225200BA18E6
S11345B01360D023FB18181C03F086FA7A685F4B4B
S11345C0101C191C03F082FE031E14D14D4B9B6971
S11345D01C1CD023FA185A4B101C191C221C03F063
S11345E0BDFD01238A225200BA181360D023FB18A0
S11345F0181C03F069FA7A68524B101C191C03F05A
S113460065FE031E13D13F4BDB68D022B9184E4A16
S1134610081C111C1A1C03F0A1FD01238A2252005C
S1134620BA181360D023FB18181C03F04DFA7A68EB
S1134630464B101C191C03F049FE031E13D1314BC9
S11346401B69D022B918424A081C111C1A1C03F019
S113465085FDD023FB18181C03F036FA01238A22A7
S11346605200BA1813607A68244B101C191C03F00A
S11346702DFE031E13D1234B1B6BD022B918344AD1
S1134680081C111C1A1C03F069FDD023FB18181C0C
S113469003F01AFA01238A225200BA1813607A68C6
S11346A02C4B101C191C03F011FE031E00D05FE3F9
S11346B0144B5B6BD022B918274A081C111C1A1C16
S11346C003F04CFDD023FB18181C03F0FDF9012363
S11346D08A225200BA1813604AE3C046C4BF0000DD
S11346E0F8F0FF1F7CC5000098C50000C8BF00009B
S11346F038F1FF1FB8C50000D4C50000F4C50000A0
S113470038BF000078F0FF1FFCC50000C0BF0000E8
S1134710B8F0FF1F1CC600003CC600005CC60000C9
S11347207CC6000064C1000080C60000A0C6000072
S1134730ACC600006CC20000C8C6000038C300004C
S1134740E8C60000DCC3000004C70000F8C4000091
S113475024C700004CC7000058C70000BA68754B56
S1134760101C191C03F0B2FD031E00D006E17A6888
S1134770714B101C191C03F0A9FD031E13D16F4BC0
S11347801B68D022B9186E4A081C111C1A1C03F0AD
S1134790E5FC01238A225200BA181360D023FB18C7
S11347A0181C03F091F97A68664B101C191C03F06D
S11347B08DFD031E13D1614B5B68D022B918624A88
S11347C0081C111C1A1C03F0C9FC01238A22520084
S11347D0BA181360D023FB18181C03F075F97A6813
S11347E05A4B101C191C03F071FD031E13D1534BBB
S11347F09B68D022B918564A081C111C1A1C03F0D5
S1134800ADFC01238A225200BA181360D023FB188E
S1134810181C03F059F97A684E4B101C191C03F04C
S113482055FD031E14D1454B9B691C1CD023FA185B
S1134830494B101C191C221C03F090FC01238A22F2
S11348405200BA181360D023FB18181C03F03CF96B
S11348507A68424B101C191C03F038FD031E13D157
S1134860364BDB68D022B9183D4A081C111C1A1CAF
S113487003F074FC01238A225200BA181360D02377
S1134880FB18181C03F020F97A68364B101C191C0D
S113489003F01CFD031E13D1284B1B69D022B91849
S11348A0314A081C111C1A1C03F058FCD023FB18B5
S11348B0181C03F009F901238A225200BA18136064
S11348C07A682A4B101C191C03F000FD031E13D137
S11348D01A4B1B6BD022B918254A081C111C1A1C30
S11348E003F03CFCD023FB18181C03F0EDF8012363
S11348F08A225200BA1813607A681E4B101C191CC5
S113490003F0E4FC031E00D032E20C4B5B6BD022BC
S1134910B918194A081C111C1A1C03F01FFCD023D7
S1134920FB18181C03F0D0F801238A225200BA188D
S113493013601DE2C0BF000064C10000B8F0FF1F97
S113494078C70000A0C6000098C700006CC2000031
S1134950B4C7000038C30000D4C70000DCC30000A3
S1134960F0C70000F8C4000010C80000F4C500003F
S113497038C800004CC7000050C80000BA68754B26
S1134980101C191C03F0A2FC031E00D006E17A6877
S1134990714B101C191C03F099FC031E13D16F4BAF
S11349A01B68D022B9186E4A081C111C1A1C03F08B
S11349B0D5FB01238A225200BA181360D023FB18B6
S11349C0181C03F081F87A68664B101C191C03F05C
S11349D07DFC031E13D1614B5B68D022B918624A77
S11349E0081C111C1A1C03F0B9FB01238A22520073
S11349F0BA181360D023FB18181C03F065F87A6802
S1134A005A4B101C191C03F061FC031E13D1534BA9
S1134A109B68D022B918564A081C111C1A1C03F0B2
S1134A209DFB01238A225200BA181360D023FB187D
S1134A30181C03F049F87A684E4B101C191C03F03B
S1134A4045FC031E14D1454B9B691C1CD023FA184A
S1134A50494B101C191C221C03F080FB01238A22E1
S1134A605200BA181360D023FB18181C03F02CF85A
S1134A707A68424B101C191C03F028FC031E13D146
S1134A80364BDB68D022B9183D4A081C111C1A1C8D
S1134A9003F064FB01238A225200BA181360D02366
S1134AA0FB18181C03F010F87A68364B101C191CFC
S1134AB003F00CFC031E13D1284B1B69D022B91838
S1134AC0314A081C111C1A1C03F048FBD023FB18A4
S1134AD0181C02F0F9FF01238A225200BA1813604D
S1134AE07A682A4B101C191C03F0F0FB031E13D127
S1134AF01A4B1B6BD022B918254A081C111C1A1C0E
S1134B0003F02CFBD023FB18181C02F0DDFF01235B
S1134B108A225200BA1813607A681E4B101C191CA2
S1134B2003F0D4FB031E00D022E10C4B5B6BD022BC
S1134B30B918194A081C111C1A1C03F00FFBD023C6
S1134B40FB18181C02F0C0FF01238A225200BA1875
S1134B5013600DE1C4BF000064C10000F8F0FF1F42
S1134B6070C80000A0C6000090C800006CC200001D
S1134B70ACC8000038C30000CCC80000DCC300008F
S1134B80E8C80000F8C4000008C90000F4C500002B
S1134B9030C900004CC7000048C90000BA68E34BA4
S1134BA0101C191C03F092FB031E00D0E0E07A688D
S1134BB0DF4B101C191C03F089FB031E13D1DD4BC2
S1134BC01B68D022B918DC4A081C111C1A1C03F0FB
S1134BD0C5FA01238A225200BA181360D023FB18A5
S1134BE0181C02F071FF7A68D44B101C191C03F0D6
S1134BF06DFB031E13D1CF4B5B68D022B918D04A8A
S1134C00081C111C1A1C03F0A9FA01238A22520061
S1134C10BA181360D023FB18181C02F055FF7A68E9
S1134C20C84B101C191C03F051FB031E13D1C14BBC
S1134C309B68D022B918C44A081C111C1A1C03F022
S1134C408DFA01238A225200BA181360D023FB186C
S1134C50181C02F039FF7A68BC4B101C191C03F0B5
S1134C6035FB031E14D1B34B9B691C1CD023FA18CB
S1134C70B74B101C191C221C03F070FA01238A2262
S1134C805200BA181360D023FB18181C02F01CFF42
S1134C907A68B04B101C191C03F018FB031E13D1C7
S1134CA0A44BDB68D022B918AB4A081C111C1A1C8F
S1134CB003F054FA01238A225200BA181360D02355
S1134CC0FB18181C02F000FF7A68A44B101C191C76
S1134CD003F0FCFA031E13D1964B1B69D022B918BA
S1134CE09F4A081C111C1A1C03F038FAD023FB1825
S1134CF0181C02F0E9FE01238A225200BA1813603C
S1134D007A68984B101C191C03F0E0FA031E13D1A7
S1134D10884B1B6BD022B918934A081C111C1A1C0F
S1134D2003F01CFAD023FB18181C02F0CDFE01235B
S1134D308A225200BA1813607A688C4B101C191C12
S1134D4003F0C4FA031E13D17A4B5B6BD022B9185B
S1134D50874A081C111C1A1C03F000FAD023FB1804
S1134D60181C02F0B1FE01238A225200BA18136003
S1134D70BA68804B101C191C03F0A8FA031E37D123
S1134D807A687D4B101C191C03F0A0FA031E00D096
S1134D9050E2082003F0AEF9031C1A1C774B1A608A
S1134DA0764B1B681A1CD023FB18101C191C0A22F2
S1134DB002F0B0FED023FB18181C03F094FA031C75
S1134DC01A1CD023FB189A186D4B111C1A1C1E2395
S1134DD0081C111C1A1C03F05DFAD023FB18181CC4
S1134DE002F072FE01238A225200BA18136021E2F3
S1134DF0BA68644B101C191C03F068FA031E37D1FF
S1134E007A685D4B101C191C03F060FA031E00D075
S1134E1010E2092003F06EF9031C1A1C574B1A60A8
S1134E20564B1B681A1CD023FB18101C191C0A2291
S1134E3002F070FED023FB18181C03F054FA031C74
S1134E401A1CD023FB189A184D4B111C1A1C1E2334
S1134E50081C111C1A1C03F01DFAD023FB18181C83
S1134E6002F032FE01238A225200BA181360E1E1F3
S1134E70BA68454B101C191C03F028FA031E37D1DD
S1134E807A683D4B101C191C03F020FA031E00D055
S1134E90D0E10C2003F02EF9031C1A1C374B1A60C6
S1134EA0364B1B681A1CD023FB18101C191C0A2231
S1134EB002F030FED023FB18181C03F014FA031C74
S1134EC01A1CD023FB189A182D4B111C1A1C1E23D4
S1134ED0081C111C1A1C03F0DDF9D023FB18181C44
S1134EE002F0F2FD01238A225200BA181360A1E1F4
S1134EF0BA68264B101C191C03F0E8F9031E00D0F5
S1134F0098E17A681C4B101C191C03F0DFF9031E8E
S1134F1000D08FE1002388225200BA1813600023C6
S1134F2088225200BA1813605FE0C046C8BF000070
S1134F3064C1000038F1FF1F68C90000A0C600006A
S1134F4088C900006CC20000A4C9000038C3000076
S1134F50C4C90000DCC30000E0C90000F8C40000BC
S1134F6000CA0000F4C5000028CA00004CC70000B5
S1134F7040CA000060CA000064CA0000D0F4FF1FE9
S1134F806CCA00008CCA000090CA000094CA0000D9
S1134F90082003F0AFF8031C191CAF4B8822520001
S1134FA0BA1812689200D150092003F0A3F8031C28
S1134FB0191CAA4B88225200BA1812689200D150C8
S1134FC00C2003F097F8031C191CA54B88225200EF
S1134FD0BA1812689200D15088235B00FB181B6832
S1134FE0013388225200BA18136088235B00FB182F
S1134FF01B68312BCCDD984B181CFEF723FB021CDD
S1135000984B1A60954B181CFEF71CFB021C964B20
S11350101A60934B181CFEF715FB021C934B1A6085
S11350208D4B181CFEF758FB021C914B1A608B4BDE
S1135030181CFEF751FB021C8E4B1A60884B181C7F
S1135040FEF74AFB021C8C4B1A60864B1A689023AD
S1135050FB18101C191C0A2202F05CFD824B1A6812
S11350605023FB18101C191C0A2202F053FD7F4B1D
S11350701A681023FB18101C191C0A2202F04AFD9E
S1135080D023FA189023FB18101C191C03F011F9F3
S1135090D023FB18181C03F026F9031C1A1CD02378
S11350A0FB189A18754B111C1A1C0223081C111C9E
S11350B01A1C03F0EFF8D023FA185023FB18101C25
S11350C0191C03F0F6F8D023FB18181C03F00BF995
S11350D0031C1A1CD023FB189A18684B111C1A1CA9
S11350E00223081C111C1A1C03F0D4F8D023FA184C
S11350F01023FB18101C191C03F0DBF8D023FB1839
S1135100181C03F0F0F8031C1A1CD023FB189A187F
S11351105A4B111C1A1C0223081C111C1A1C03F0E4
S1135120B9F8534B1A689023FB18101C191C0A2257
S113513002F0F0FC4F4B1A685023FB18101C191C8A
S11351400A2202F0E7FC4C4B1A681023FB18101CCF
S1135150191C0A2202F0DEFCD023FA189023FB1853
S1135160101C191C03F0A5F8D023FB18181C03F01D
S1135170BAF8031C1A1CD023FB189A183F4B111CB5
S11351801A1C0223081C111C1A1C03F083F8D023D8
S1135190FA185023FB18101C191C03F08AF8D023AA
S11351A0FB18181C03F09FF8031C1A1CD023FB18CF
S11351B09A18324B111C1A1C0223081C111C1A1CAD
S11351C003F068F8D023FA181023FB18101C191CDC
S11351D003F06FF8D023FB18181C03F084F8031CA9
S11351E01A1CD023FB189A18244B111C1A1C0223D6
S11351F0081C111C1A1C03F04DF8D023FB18181CB2
S113520003F071F8031C1A1CD023FB189A181C4BCA
S1135210111C1A1C0A23081C111C1A1C03F03AF84E
S1135220D023FB18181C02F04FFC01238A225200E1
S1135230BA1813608A235B00FB181B68002B03D188
S1135240104B181C02F040FC0F4B01221A60C046A0
S1135250BD4647B090BDC046C4F3FF1F1CF2FF1FFC
S1135260E8F2FF1FE4F2FF1FC0F3FF1FB8F3FF1FB4
S1135270B0F3FF1FB4F3FF1FBCF3FF1F98CA000075
S11352809CCA0000A8CA000008F2FF1FB0B5C6B04F
S113529000AFF860B9607A6000238A225200BA181D
S11352A01360FA68CE4B101C191C03F00FF8031E90
S11352B000D04EE1BA68CB4B101C191C03F006F861
S11352C0031E3BD1C84B1B68002B2AD1C74B1B685C
S11352D0002B26D1C64B1B68002B22D1C54B1B6863
S11352E0002B1ED17B68012B0BD101F07BFC012329
S11352F08A225200BA181360BF4B181C02F0E4FB58
S11353000EE07B68002B0BD101F046FA01238A22C0
S11353105200BA181360B94B181C02F0D5FB0BE00D
S11353200AE001238A225200BA181360B44B181CF5
S113533002F0CAFB01F021F901F01FF9BA68B14B80
S1135340101C191C02F0C2FF031E3BD1A64B1B68A4
S1135350002B2AD1A54B1B68002B26D1A44B1B681C
S1135360002B22D1A34B1B68002B1ED17B68012B81
S11353700BD101F07DFC01238A225200BA1813607C
S1135380A14B181C02F0A0FB0EE07B68002B0BD194
S113539001F002FA01238A225200BA181360974BD3
S11353A0181C02F091FB0BE00AE001238A22520050
S11353B0BA181360924B181C02F086FB01F0DDF85A
S11353C001F0DBF8BA68914B101C191C02F07EFF47
S11353D0031E3BD1844B1B68002B2AD1834B1B68D3
S11353E0002B26D1824B1B68002B22D1814B1B68DA
S11353F0002B1ED17B68012B0BD101F021FD012371
S11354008A225200BA181360814B181C02F05CFB0C
S11354100EE07B68002B0BD101F0BEF901238A2238
S11354205200BA181360754B181C02F04DFB0BE0C8
S11354300AE001238A225200BA181360704B181C28
S113544002F042FB01F099F801F097F8BA68714B49
S1135450101C191C02F03AFF031E3BD1624B1B685F
S1135460002B2AD1614B1B68002B26D1604B1B6893
S1135470002B22D15F4B1B68002B1ED17B68012BB4
S11354800BD101F05BFB01238A225200BA1813608E
S1135490614B181C02F018FB0EE07B68002B0BD14B
S11354A001F07AF901238A225200BA181360534B8F
S11354B0181C02F009FB0BE00AE001238A225200C7
S11354C0BA1813604E4B181C02F0FEFA01F055F89E
S11354D001F053F8BA68514B101C191C02F0F6FE87
S11354E0031E30D14E4B1B68002B21D17B68012B4E
S11354F00CD101F039FB01238A225200BA1813603F
S1135500484B181C02F0E0FA01F037F87B68002BD6
S113551001D001F032F801F03FF901238A22520050
S1135520BA181360354B181C02F0CEFA01F025F8B6
S113553001238A225200BA181360314B181C02F05E
S1135540C3FA01F01AF8384B181C02F0BDFA01F046
S113555014F8FA68354B101C191C02F0B7FE031E30
S113556001D000F05DFDBA68314B101C191C02F02B
S1135570ADFE031E15D12F4B1B68D422B9182E4A39
S1135580081C111C1A1C02F0E9FD01238A22520096
S1135590BA181360D423FB18181C02F095FA00F013
S11355A0ECFFBA68254B101C191C02F08FFE031E79
S11355B04AD1234B1B68D422B918224A081C111C57
S11355C01A1C02F0CBFD01238A225200BA18136080
S11355D0D423FB18181C02F077FA00F0CEFFC04663
S11355E028BF0000D4CA0000E4F1FF1FE8F1FF1F48
S11355F0ECF1FF1FF0F1FF1FDCCA000008CB000034
S113560040CB00006CCB000074CB0000A0CB0000AA
S1135610A8CB0000D4CB0000DCCB000008CC0000F9
S1135620FCF1FF1F10CC000044CC00007CC600003D
S11356306CCC000080F1FF1F74CC00008CCC000007
S113564084F1FF1F94CC0000BA68E24B101C191CB3
S113565002F03CFE031E15D1DF4B1B68D422B9189F
S1135660DE4A081C111C1A1C02F078FD01238A2250
S11356705200BA181360D423FB18181C02F024FA41
S113568000F07BFFBA68D64B101C191C02F01EFEFA
S1135690031E15D1D34B1B68D422B918D24A081C57
S11356A0111C1A1C02F05AFD01238A225200BA1856
S11356B01360D423FB18181C02F006FA00F05DFFF7
S11356C0BA68CA4B101C191C02F000FE031E15D147
S11356D0C74B1B68D422B918C64A081C111C1A1CD3
S11356E002F03CFD01238A225200BA181360D4232D
S11356F0FB18181C02F0E8F900F03FFFBA68BE4B33
S1135700101C191C02F0E2FD031E25D1BB4B1B68C3
S1135710181CFDF779FC031C0C1C181C211C00220E
S1135720B74BFCF7E9F9031C0C1C251C1C1CD423E7
S1135730FA18B44B101C191C221C2B1C02F00EFD71
S113574001238A225200BA181360D423FB18181CB0
S113575002F0BAF900F011FFBA68AB4B101C191C27
S113576002F0B4FD031E25D1A84B1B68181CFDF7DD
S11357704BFC031C0C1C181C211C0022A04BFCF726
S1135780BBF9031C0C1C251C1C1CD423FA18A04BAD
S1135790101C191C221C2B1C02F0E0FC01238A2281
S11357A05200BA181360D423FB18181C02F08CF9A9
S11357B000F0E3FEBA68974B101C191C02F086FD3A
S11357C0031E15D1944B1B68D422B918934A081CA4
S11357D0111C1A1C02F0C2FC01238A225200BA18BE
S11357E01360D423FB18181C02F06EF900F0C5FEF8
S11357F0BA688B4B101C191C02F068FD031E15D1EE
S1135800884B1B68D422B918874A081C111C1A1C1F
S113581002F0A4FC01238A225200BA181360D42394
S1135820FB18181C02F050F900F0A7FEBA687F4B71
S1135830101C191C02F04AFD031E15D17C4B1B6879
S1135840D422B9187B4A081C111C1A1C02F086FCCD
S113585001238A225200BA181360D423FB18181C9F
S113586002F032F900F089FEBA68734B101C191C5F
S113587002F02CFD031E15D1704B1B68D422B918FD
S11358806F4A081C111C1A1C02F068FC01238A22AE
S11358905200BA181360D423FB18181C02F014F930
S11358A000F06BFEBA68674B101C191C02F00EFD69
S11358B0031E15D1644B1B68D422B918634A081C13
S11358C0111C1A1C02F04AFC01238A225200BA1845
S11358D01360D423FB18181C02F0F6F800F04DFEF8
S11358E0BA685B4B101C191C02F0F0FC031E15D1A6
S11358F0554B1B68D422B918544A081C111C1A1C95
S113590002F02CFC01238A225200BA181360D4231B
S1135910FB18181C02F0D8F800F02FFEBA684D4BA3
S1135920101C191C02F0D2FC031E15D14A4B1B6833
S1135930D422B918494A081C111C1A1C02F00EFC86
S113594001238A225200BA181360D423FB18181CAE
S113595002F0BAF800F011FEBA68414B101C191C91
S113596002F0B4FC031E16D13E4B5B8C1C1CD423EA
S1135970FA183D4B101C191C221C02F0EFFB0123EA
S11359808A225200BA181360D423FB18181C02F0A0
S11359909BF800F0F2FDBA68344B101C191C02F09D
S11359A095FC031E66D12F4B1B8C1C1CD423FA18A8
S11359B02F4B101C191C221C02F0D0FB01238A223D
S11359C05200BA181360D423FB18181C02F07CF898
S11359D000F0D3FDACCC000088F1FF1FB8CC000070
S11359E0D8CC00008CF1FF1FE4CC000000CD0000F7
S11359F0D8F1FF1F10CD00002CCD000078F1FF1F5F
S1135A0000408F4038CD000054CD00007CF1FF1FD2
S1135A1060CD000084CD000090F1FF1F94CD000004
S1135A20ACCD0000E4F1FF1FB4CD0000C4CD0000F4
S1135A30E8F1FF1FCCCD0000DCCD0000ECF1FF1F2E
S1135A40E4CD0000F4CD0000F0F1FF1FFCCD000018
S1135A500CCE000014CE000000F2FF1F1CCE00008C
S1135A602CCE000000F0FF1F38CE00004CCE00000A
S1135A7058CE0000BA68DB4B101C191C02F026FC3F
S1135A80031E16D1D84B5B8C1C1CD423FA18D74B9D
S1135A90101C191C221C02F061FB01238A225200F3
S1135AA0BA181360D423FB18181C02F00DF800F088
S1135AB064FDBA68CE4B101C191C02F007FC031ECF
S1135AC016D1C94B1B8C1C1CD423FA18C94B101CAF
S1135AD0191C221C02F042FB01238A225200BA182C
S1135AE01360D423FB18181C01F0EEFF00F045FDF1
S1135AF0BA68C14B101C191C02F0E8FB031E16D136
S1135B00BE4B5B8C1C1CD423FA18BD4B101C191CF7
S1135B10221C02F023FB01238A225200BA181360CC
S1135B20D423FB18181C01F0CFFF00F026FDBA683F
S1135B30B44B101C191C02F0C9FB031E16D1AF4B49
S1135B401B8C1C1CD423FA18AF4B101C191C221CD0
S1135B5002F004FB01238A225200BA181360D423F2
S1135B60FB18181C01F0B0FF00F007FDBA68A74B42
S1135B70101C191C02F0AAFB031E17D1A44B5C6A6B
S1135B801B6AD422B918A34A081C111C1A1C231C12
S1135B9002F0E4FA01238A225200BA181360D423D3
S1135BA0FB18181C01F090FF00F0E7FCBA689A4B50
S1135BB0101C191C02F08AFB031E17D1974B5C6A58
S1135BC01B6AD422B918964A081C111C1A1C231CDF
S1135BD002F0C4FA01238A225200BA181360D423B3
S1135BE0FB18181C01F070FF00F0C7FCBA688D4B5D
S1135BF0101C191C02F06AFB031E17D18A4B5C6A45
S1135C001B6AD422B918894A081C111C1A1C231CAB
S1135C1002F0A4FA01238A225200BA181360D42392
S1135C20FB18181C01F050FF00F0A7FCBA68804B69
S1135C30101C191C02F04AFB031E17D17D4B5C6A31
S1135C401B6AD422B9187C4A081C111C1A1C231C78
S1135C5002F084FA01238A225200BA181360D42372
S1135C60FB18181C01F030FF00F087FCBA68734B76
S1135C70101C191C02F02AFB031E17D1644BDC6AAA
S1135C809B6AD422B9186E4A081C111C1A1C231CC6
S1135C9002F064FA01238A225200BA181360D42352
S1135CA0FB18181C01F010FF00F067FCBA68654B84
S1135CB0101C191C02F00AFB031E17D1574BDC6A97
S1135CC09B6AD422B918604A081C111C1A1C231C94
S1135CD002F044FA01238A225200BA181360D42332
S1135CE0FB18181C01F0F0FE00F047FCBA68574B93
S1135CF0101C191C02F0EAFA031E17D14A4BDC6A85
S1135D009B6AD422B918524A081C111C1A1C231C61
S1135D1002F024FA01238A225200BA181360D42311
S1135D20FB18181C01F0D0FE00F027FCBA68494BA0
S1135D30101C191C02F0CAFA031E17D13D4BDC6A71
S1135D409B6AD422B918444A081C111C1A1C231C2F
S1135D5002F004FA01238A225200BA181360D423F1
S1135D60FB18181C01F0B0FE00F007FCBA683B4BAE
S1135D70101C191C02F0AAFA031E15D1384B1B681B
S1135D80D422B918374A081C111C1A1C02F0E6F96F
S1135D9001238A225200BA181360D423FB18181C5A
S1135DA001F092FE00F0E9FBBA682F4B101C191C9D
S1135DB002F08CFA031E5DD12C4B1B68D422B91857
S1135DC02B4A081C111C1A1C02F0C8F901238A2250
S1135DD05200BA181360D423FB18181C01F074FE87
S1135DE000F0CBFB6CCE000028F0FF1F78CE000043
S1135DF08CCE000098CE0000ACCE000050F0FF1F07
S1135E00B8CE0000CCCE0000D8CE0000ECCE00000E
S1135E1078F0FF1FF8CE00000CCF0000B8F0FF1F91
S1135E2018CF00002CCF0000F8F0FF1F38CF00007F
S1135E304CCF000038F1FF1F58CF00006CCF00009A
S1135E4078CF00008CCF000098CF0000ACCF0000CA
S1135E50B8CF0000CCCF0000D8CF0000ECCF0000BA
S1135E60A0F1FF1FF8CF00000CD00000A4F1FF1F29
S1135E7018D00000BA68D94B101C191C02F026FA7D
S1135E80031E14D1D64B1B68D422B918D54A081C5A
S1135E90111C1A1C02F062F901238A225200BA185A
S1135EA01360D423FB18181C01F00EFE65E3BA68D6
S1135EB0CD4B101C191C02F009FA031E09D1CB4B5F
S1135EC0181C01F001FE01238A225200BA18136043
S1135ED053E3BA68C64B101C191C02F0F7F9031EF1
S1135EE014D1C44B1B68D422B918C34A081C111C12
S1135EF01A1C02F033F9D423FB18181C01F0E4FD3A
S1135F0001238A225200BA18136036E3BA68BB4BE5
S1135F10101C191C02F0DAF9031E14D1B84B1B68CB
S1135F20D422B918B74A081C111C1A1C02F016F91D
S1135F30D423FB18181C01F0C7FD01238A22520048
S1135F40BA18136019E3BA68AF4B101C191C02F09D
S1135F50BDF9031E14D1AD4B1B68D422B918AC4A49
S1135F60081C111C1A1C02F0F9F8D423FB18181C85
S1135F7001F0AAFD01238A225200BA181360FCE240
S1135F80BA68A44B101C191C02F0A0F9031E14D10A
S1135F90A14B1B68D422B918A04A081C111C1A1C56
S1135FA002F0DCF8D423FB18181C01F08DFD01234A
S1135FB08A225200BA181360DFE2BA68984B101CA8
S1135FC0191C02F083F9031E14D1964B1B68D422CA
S1135FD0B918954A081C111C1A1C02F0BFF8D423E6
S1135FE0FB18181C01F070FD01238A225200BA1814
S1135FF01360C2E2D423FB188C4A13CA13C313CA16
S113600013C313CA13C312781A7001238A225200CD
S1136010BA181360D423FB18181C01F055FDACE228
